:020000040800F2
:10000000380D0020E5010008C5210008E51A0008A8
:100010007D200008C5110008D73C00080000000042
:10002000000000000000000000000000B32B0008EA
:10003000751400080000000039220008952D000802
:10004000FF010008FF010008FF010008FF01000890
:10005000FF010008FF010008FF010008FF01000880
:10006000FF010008FF010008FF010008FF01000870
:10007000FF010008FF010008FF010008FF01000860
:10008000FF010008FF010008FF010008FF01000850
:10009000FF010008FF010008FF01000879140008B3
:1000A000FF010008FF010008FF010008FF01000830
:1000B00039300008FF01000851300008FF01000836
:1000C000FF010008FF010008FF010008FF01000810
:1000D000FF010008FF0100086D3400082537000803
:1000E000FF010008FF010008FF01000800F002F80E
:1000F00000F068F80AA090E8000C82448344AAF15A
:100100000107DA4501D100F05DF8AFF2090EBAE857
:100110000F0013F0010F18BFFB1A43F0010318473B
:10012000388F0000588F00000A444FF0000C10F880
:10013000013B13F0070408BF10F8014B1D1108BF65
:1001400010F8015B641E05D010F8016B641E01F805
:10015000016BF9D113F0080F1EBF10F8014BAD1C55
:100160000C1B09D16D1E58BF01F801CBFAD505E073
:1001700014F8016B01F8016B6D1EF9D59142D6D3CD
:10018000704700000023002400250026103A28BFF5
:1001900078C1FBD8520728BF30C148BF0B607047F9
:1001A000642900F0AD80002070471FB500F08AFE82
:1001B00004000020002106F0E5FE401C60601FBD29
:1001C00010B510BD00F04AFE1146FFF7EEFF05F036
:1001D000AFFB00F071FE03B4FFF7F2FF03BC03F0C6
:1001E00000FE00000948804709480047FEE7FEE797
:1001F000FEE7FEE7FEE7FEE7FEE7FEE7FEE7FEE7D7
:1002000004480549054A064B70470000992D00082F
:10021000ED00000838070020380D002038090020C4
:1002200038090020704710B54C1084EA530404D5F7
:100230004042C1F1000138BF491E1B4204D5524261
:10024000C3F1000338BF5B1E00F09EFA14F0804F2C
:1002500004D04042C1F1000138BF491E14F0004FE4
:1002600004D05242C3F1000338BF5B1E10BD000032
:100270000FB4044910B503AA029800F07FFB10BC2C
:100280005DF814FB4C0100200FB41CB5074B06AA07
:100290007B4469460090059800F057FB00206946B2
:1002A00000F066FB1CBC5DF814FB0000DD060000DE
:1002B00070B5044685690068C10601D5302600E0A6
:1002C0002026C00707D070BDD4E9012130469047F1
:1002D000206A401C20626D1EF6D570BD70B50446C4
:1002E00085690078C00707D170BDD4E901212020BD
:1002F0009047206A401C20626D1EF6D570BD00003C
:100300002DE9F0410646002410687529314616A5EE
:1003100010D0AFF30080002802DA404213A507E0B6
:1003200031688A0701D512A502E0490704D511A555
:10033000012401E0AFF3008000210A2206F1240726
:1003400009E0B0FBF2FCB0FBF2F302FB1C00303022
:1003500078541846491C0028F3D123462A463046D3
:10036000BDE8F04100F092BA000000002D0000004E
:100370002B000000200000002DE9F05F89460446B4
:100380004FF0000ADFF824B1FB44C0F820A020465B
:10039000E168884700287DD0252806D0D4E90121CE
:1003A0009047206A401C2062F1E700255F46204606
:1003B000E16888472028064607DB312E05D2B819A8
:1003C00010F8200C08B10543F1E7A80701D525F086
:1003D0000405C4F81CA00027C4F818A02A2E09D0D0
:1003E000304603F0F7FC38B304EB8708303EC8F81A
:1003F000186019E059F8041B204604EB870291614C
:10040000E1688847012F064618D1E069002820DA04
:1004100025F020051DE0D8F8180000EB800006EB61
:1004200040003038C8F818002046E1688847064682
:1004300003F0D0FC0028EED1012F0AD02E2E08D1D7
:100440002046E16888477F1C0646022F45F02005BC
:10045000C4DBA069002803DA404245F00105A06131
:10046000E80701D025F01005A6B1A6F14100192832
:1004700002D8203645F400654A46314620462560BC
:100480004D46FFF78DFE60B1012807D0ED1D25F028
:10049000070000E007E000F1080978E705F104092A
:1004A00075E730467AE7206ABDE8F09F768B00005A
:1004B0000FB400B58DB010A9099000910B904FF0CA
:1004C000FF300A9000200C900648784406900648B9
:1004D00078446A4607900F9909A800F075FA0DB0A4
:1004E0005DF814FB1B050000330500002DE9FF5FDC
:1004F0001D464FF0FF3B91464FF000085F46D5E99F
:100500000146A96901987F1C8847296A8246884765
:100510000028F6D1BAF1FF3F0CD0002E24F4C064BD
:1005200019DD600614D5BAF12B0F09D0BAF12D0FE1
:100530000ED103E0584604B0BDE8F09F44F4806457
:10054000A96901987F1C8847761E8246002E02DD2D
:10055000BAF1300F03D0B9F1000F26D032E0A9690B
:10056000761E01987F1C44F400748847002E824652
:1005700005DDBAF1780F06D0BAF1580F03D0B9F102
:10058000000F10D01EE0B9F1000F02D0B9F1100F2A
:1005900018D1A969761E01987F1C24F4007488473D
:1005A0008246102002E0082000E00A20814609E08F
:1005B000A96908FB0908761E01987F1C44F40074A1
:1005C00088478246002E05DD4946504600F0E8F98E
:1005D0000028EDDAE96901988847A00502D46FF098
:1005E0000100A8E7E00725D1600613D5600502D514
:1005F000C8F1000000E0404629680A1D2A60096829
:10060000220501D5087015E0220701D5088011E008
:1006100008600FE02868011D29600068210502D5E7
:1006200080F8008006E0210702D5A0F8008001E0F4
:10063000C0F8008038467EE72DE9FF5F4FF00008E4
:100640009946144646469169D2E901A7DDF838B0CB
:1006500001988847054659EA0B0005D009E0A169D1
:100660000198761C88470546216A28468847002855
:10067000F5D1681C03D05FEACA7005D015E04FF0D1
:10068000FF3004B0BDE8F09F2068011D2160D0F864
:1006900000800AE05FEACA7001D108F8015BA16935
:1006A000761C01987F1E88470546002F1ADD681CBE
:1006B00018D0B9F1000F0DD0E81705EBD06042114A
:1006C00020F01F0059F822102A1A01209040014200
:1006D000E0D107E0BBF1000FDCD12846216A884752
:1006E0000028D7D0E16901988847BBF1000F07D1F6
:1006F000002E05DD5FEACA7002D1002188F80010E3
:10070000A068B84203DDBBF1000F03D017B16FF052
:100710000100B6E73046B4E740EA010310B59B0795
:100720000FD1042A0DD310C808C9121F9C42F8D05B
:1007300020BA19BA884201D9012010BD4FF0FF300C
:1007400010BD1AB1D30703D0521C07E0002010BD22
:1007500010F8013B11F8014B1B1B07D110F8013BAE
:1007600011F8014B1B1B01D1921EF1D1184610BD8F
:1007700002F0FF0343EA032242EA024200F056B9C4
:10078000704770477047704753EA020C00F0698069
:100790002DE9F04B4FF00006002B1FBFB3FA83F595
:1007A00003FA05F424FA05F65E4012BF1643B2FAC6
:1007B00082F502FA05F4C5F120051EBF22FA05FCF8
:1007C00044EA0C04203556EA044C4FEA144418BF9E
:1007D000641C4FF000084FF00009904271EB030CCD
:1007E00039D3002919BFB1FA81F701FA07F6B0FA37
:1007F00080F700FA07F6C7F120071EBF20FA07FCB2
:1008000046EA0C062037B6FBF4FCA7EB0507103FC1
:1008100007F01F0BCBF120060CFA0BFB2CFA06F6A7
:1008200044BFB3460026202FA4BF5E464FF0000B06
:100830005BEA060C08BF4FF0010B19EB0B09ABFB91
:10084000027C48EB0608C01B06FB02CC0BFB03CC6A
:1008500071EB0C01C1E70B46024641464846BDE834
:10086000F08B13B54FF000004FF00001AFF30080A4
:10087000BDE81C40704710B500F0F8F8006810BDE6
:1008800010B5044600F0F2F8046010BD2DE9F04701
:100890000D4699469246044600F1240801688806F0
:1008A00004D5E06921F01001216000E00120A84298
:1008B00001DD471B00E00027A1697A1902EB09005E
:1008C000081AA0612078C00602D42046FFF7F0FC89
:1008D000002608E0D4E901211AF806009047206AB2
:1008E000401C761C20624E45F4DB2078C0060AD5F9
:1008F0002046FFF7DDFC06E0D4E9012130209047D7
:10090000206A401C2062381EA7F10107F4DC07E0D2
:10091000D4E9012118F805009047206A401C2062A4
:10092000281EA5F10105F3DC2046FFF7D7FC20784F
:10093000000602D50220BDE8F0870120FBE7000099
:1009400001694A1C02610878704700B58FB0CDE993
:1009500001310021059105497944CDE90310114683
:100960006846FFF709FD0FB000BD0000E5FFFFFF7F
:100970000A6802F8010B0A6070470000074B70B567
:100980000D467B44FFF7E1FF0446284600F036FAA7
:1009900010B14FF0FF3070BD204670BD0F48000011
:1009A0003A2800D2303820F02002412A01D3A2F1A7
:1009B0003700884201D34FF0FF307047026811447E
:1009C0001378016018467047D16005497944516138
:1009D00004497944116200211161114600F054B8B4
:1009E000EDFFFFFF9F000000426842B1016811F86F
:1009F000013B23B1521EC0E9001218467047012185
:100A0000C160881E704742685AB1C368016843B923
:100A100083688B4205D0491E521CC0E90012002099
:100A200070474FF0FF3070474FF000020429C0F0CC
:100A3000128010F0030C00F0E781CCF1040CBCF143
:100A4000020F18BF00F8012BA8BF20F8022BA1EB62
:100A50000C0100F0D9B95FEAC17C24BF00F8012B7A
:100A600000F8012B48BF00F8012B70470048704781
:100A7000D806002010B5044600F016FA0068005DA4
:100A800000F0010010BD00002DE9F34F4FF0000A07
:100A90000C4656468DB001200C9001F10C000B90D5
:100AA00062690B980121904705002DD0252D2CD08F
:100AB000216A8847C0B162690B9801219047216A79
:100AC00088470028F7D16269411E0B98904700E0E3
:100AD000761CA1690D988847216A88470028F7D1BC
:100AE000E1690D988847DBE7A1690D988847A8421E
:100AF000074601D1761CD3E7E1690D9888477F1C32
:100B000002D1BAF1000F6FD06BE162690B98002738
:100B10003D46394690472A2804D162690B98012145
:100B200090470125DFF8D08262690B980121904738
:100B3000A0F130010A290AD24745E5DC07EB87011D
:100B400000EB4107303FDFD445F01005ECE7E90644
:100B500001D46FF000476C280AD04C2814D06828C4
:100B600015D06A280DD074281CD07A281AD01DE020
:100B700062690B98012190476C2802D045F004056A
:100B800014E045F002050DE045F020050AE0626939
:100B90000B9801219047682802D045F0080505E030
:100BA00045F4006562690B9801219047C4E901573B
:100BB00065283DD019DC58287AD00CDC452837D080
:100BC00004DC252826D041289ED131E046282FD0AC
:100BD000472899D12CE05B2877D0612828D063285A
:100BE0007CD0642823D15AE0F6E06F2848D008DC96
:100BF00066281DD067281BD0692821D06E2816D101
:100C000027E0702845D0732868D0752847D0782809
:100C10000DD14DE0A1690D988847252805463FF480
:100C200069AFE1690D9888476D1C3FF46AAFD8E061
:100C30000D9923466A466FF00100AFF30080C5E0CE
:100C400045F0400023464FF000026060A80736D40C
:100C50003EE0E8077FF447AF2068011D216000688F
:100C6000290501D506701BE7290701D5068017E77E
:100C7000A90703D5F117C0E9006111E706600FE786
:100C800045F0400023464FF008026060A80716D4E4
:100C90001EE040F60E0125EA0100606016E045F016
:100CA000400023464FF00A026060A80707D40FE017
:100CB00045F040006060A80708D5234610220D9932
:100CC0006FF00100AFF3008080E007E010222346C0
:100CD0000D996FF00100FFF709FC77E04FF0000974
:100CE00063284F46C8464B46CB4602D05B2806D009
:100CF00038E0E80601D40120A060012732E06269F3
:100D0000D4F80CB00B98012190475E2807D14FF022
:100D1000010949466269D4F80CB00B9890472169E3
:100D200039B900210A4603AB43F82120491C0829A0
:100D3000FADBD8B3216949B308F1010862690B985D
:100D4000012190475D28F4D1B9F1000F09D00020AE
:100D500003A951F82020D24341F82020401C082844
:100D6000F7DB03AB2069002820794FEA40701ED0E2
:100D70005B462246CDF80080CDE901970D99002809
:100D80006FF0010020DAAFF300801FE0C11703AA63
:100D900000EBD1614B1121F01F0102EB8302411ADC
:100DA00013680120884003431360C7E719E00D99D9
:100DB000224600286FF00100009702DAAFF30080AE
:100DC00004E0FFF739FC01E0AFF3008000280ADA05
:100DD000401C06D10C9820B14FF0FF300FB0BDE899
:100DE000F08F5046FAE7E90701D10AF1010A0644FB
:100DF00000200C9054E60000CCCCCC0C007B00F022
:100E0000800070474FF0000200B5134694469646A6
:100E1000203922BFA0E80C50A0E80C50B1F120010D
:100E2000BFF4F7AF090728BFA0E80C5048BF0CC0BB
:100E30005DF804EB890028BF40F8042B08BF704719
:100E400048BF20F8022B11F0804F18BF00F8012B8B
:100E50007047000000487047D80600207546FFF72D
:100E6000F9FFAE4605006946534620F00700854667
:100E700018B020B5FFF7C4F9BDE820404FF00006D8
:100E80004FF000074FF000084FF0000B21F0070172
:100E9000AC46ACE8C009ACE8C009ACE8C009ACE8B5
:100EA000C0098D467047000010B500F00BF8001D1A
:100EB00010BD00BFD16000000446AFF300802046A3
:100EC000FFF789F900487047F80600204FF0013C11
:100ED00050F8042B51F8043B9A4221D1A2EB0C03A9
:100EE000934313EACC1317D150F8042B51F8043B69
:100EF0009A4215D1A2EB0C03934313EACC130BD106
:100F000050F8042B51F8043B9A4209D1A2EB0C0390
:100F1000934313EACC13DBD04FF00000704700BFBF
:100F2000D01A01BAB1FA81F101F0180122FA01F0E8
:100F3000CB40C1F12001DBB2C0B2C01A2CFA01F3E0
:100F4000D11A914311EAC311E6D1704721B18268E9
:100F500042F00102826003E0826822F001028260B6
:100F60007047000010B504461248844208D10121A0
:100F7000401501F08FF90021601501F08BF917E0A1
:100F80000D48844208D10121001501F083F90021A8
:100F9000201501F07FF90BE00848844208D10121B7
:100FA000C80301F077F900214FF4004001F072F915
:100FB00010BD00000024014000280140003C014019
:100FC000014600208A6802F004020AB1012000E014
:100FD000002070470146C86C80B27047024600206E
:100FE00013680B400BB1012000E000207047014660
:100FF00000208A6802F008020AB1012000E0002007
:101000007047000030B502460020002350680F4CA6
:1010100020400D790C6844EA052420435060906814
:101020000B4C2040D1E902542C434D7944EA45044D
:1010300020439060D06A20F470000C7C641EE4B2FF
:10104000234340EA0350D06230BD0000FFFEF0FFB2
:10105000FDF7F1FFF0B504460D4600200021092DF3
:1010600011DDE068A5F10A0606EB4607072606FA39
:1010700007F18843A5F10A0606EB460603FA06F1D6
:101080000843E0600CE0206905EB4507072606FAF7
:1010900007F1884305EB450603FA06F10843206192
:1010A000072A0FDA606B561E06EB86071F2606FA24
:1010B00007F18843561E06EB860605FA06F108433B
:1010C000606322E00D2A0FDA206BD61F06EB86073D
:1010D0001F2606FA07F18843D61F06EB860605FA97
:1010E00006F10843206310E0E06AA2F10D0606EB6A
:1010F00086071F2606FA07F18843A2F10D0606EBC4
:10110000860605FA06F10843E062F0BD816841F009
:1011100008018160704721B1826842F4A0028260B8
:1011200003E0826822F4A00282607047816841F087
:10113000040181607047000000B587B001214FF4C1
:10114000017001F097F84FF4004001F077F810209B
:10115000ADF8040000208DF8070001A9174800F041
:10116000E1FB1748FFF7FEFE002002908DF80C000F
:101170008DF80D004FF460200490002005900120B0
:101180008DF8180002A90E48FFF73CFF01210C481A
:10119000FFF7DCFE0A48FFF7B9FF00BF0848FFF77A
:1011A00026FF0028FAD10648FFF7C0FF00BF044819
:1011B000FFF706FF0028FAD107B000BD0008014084
:1011C0000024014000BFFEE73EB5002002900090E1
:1011D000019002AB01227521682004F003FB9DF809
:1011E0000800C11700EB1171091130318DF80010A2
:1011F0009DF80800C11700EB11710911A0EB011156
:101200003031C9B28DF801100D208DF802000A208E
:101210008DF8030000208DF804002DA005F0B4FD2A
:10122000684605F0B1FD9DF8080068280ED000BFA3
:101230002C48006800F4E0602B490843001D294950
:101240000860BFF3408F00BF00BFFEE704F040FD21
:1012500000283CD1782005F045FB10B923A005F00B
:1012600093FD782004F022FC10B929A005F08CFD34
:10127000152005F0E9FA10B92FA005F085FD03F05F
:1012800025FB10B936A005F07FFD424804F015FBA0
:10129000044603F075FD10B93FA005F075FD4FF44D
:1012A000B87003F0BBF910B945A005F06DFD15202D
:1012B00003F096FC10B94CA005F066FD05F0AEFCFD
:1012C000012005F0BDF910B950A005F05DFD3EBD4F
:1012D000636865636B206D707536303530207265DC
:1012E000743A20000CED00E00000FA056D70755FA7
:1012F0007365745F73656E736F7220636F6D706C6E
:10130000657465202E2E2E2E2E2E0D0A0000000054
:101310006D70755F636F6E6669677572655F66692C
:10132000666F20636F6D706C657465202E2E2E2E97
:101330002E2E0D0A000000006D70755F7365745FDE
:1013400073616D706C655F7261746520636F6D7041
:101350006C657465202E2E2E2E2E2E0D0A00000098
:10136000646D705F6C6F61645F6D6F74696F6E5FE9
:101370006472697665725F6669726D776172652005
:10138000636F6D706C657465202E2E2E2E2E2E0DC3
:101390000A000000C8000020646D705F7365745F10
:1013A0006F7269656E746174696F6E20636F6D70C2
:1013B0006C657465202E2E2E2E2E2E0D0A00000038
:1013C000646D705F656E61626C655F6665617475A2
:1013D000726520636F6D706C657465202E2E2E2EE5
:1013E0002E2E0D0A00000000646D705F7365745F3F
:1013F0006669666F5F7261746520636F6D706C659E
:101400007465202E2E2E2E2E2E0D0A006D70755F07
:101410007365745F646D705F737461746520636F6E
:101420006D706C657465202E2E2E2E2E2E0D0A00EA
:101430000146012000EB8100C2B20A2900DC09B993
:10144000002070472420034B187018468254501C0B
:10145000C0B2F6E7800100200A2900DC01B970471C
:101460004A1E034B03EB8202106000BFF7E7000047
:10147000810100207047000010B522480068002854
:101480003ED120202049086020480078401C1F4998
:101490000870022001F052F940421D4909680844D1
:1014A0001B490860042001F049F91A4909680844F9
:1014B0001849086015480078042818D114480068B5
:1014C0001549086013480068144908600020104955
:1014D0000860104908600D49087005F0ADFA01F088
:1014E000A3FF08B901F0DAFB01200D4908700D488F
:1014F0000088C82191FBF0F084B2204600F040FD46
:10150000002010BD14812142140401400500002078
:10151000180000201C0000202000002024000020D3
:1015200004000020A4000020002123498279002A21
:101530003AD00A46126803689A430B461A600A1D9D
:10154000126803689A430B1D1A60027911440A68F5
:1015500003681A430A60184A0832126803689A43FB
:10156000154B08331A601A1D126803689A43124B10
:101570000C331A604279102A0ED11A1F12680368C0
:101580001A430D4B08331A601A1D126803681A4378
:10159000094B0C331A600DE00749427911440A687F
:1015A00003681A430A6005E0027911440A68036877
:1015B0009A430A60704700000004014000B587B0FC
:1015C0000121084600F046FE0121042000F052FEF1
:1015D0000320ADF8000004208DF8030069461E4882
:1015E00000F0A0F904A801F015FF0020ADF81000EC
:1015F0004FF6FF70ADF814000020ADF81600ADF8FE
:10160000120004A94FF0804001F0B2FE00231A46F8
:1016100003214FF0804001F051FD01A801F0C6FD0B
:101620000A20ADF80C0001A9400701F069FD012175
:10163000880701F025FD01221146900701F0BFFD4A
:1016400000214FF0804001F064FE0121880701F085
:101650001AFD07B000BD00000008014000B587B0CA
:101660000121042000F0F6FD0121082000F002FE17
:10167000C020ADF8000004208DF8030069461C4826
:1016800000F050F904A801F0C5FE0020ADF81000EC
:101690004FF6FF70ADF814000020ADF81600ADF85D
:1016A000120004A9134801F063FE00231A46032127
:1016B000104801F003FD01A801F078FD0A20ADF803
:1016C0000C0001A90B4801F01BFD0121094801F0A4
:1016D000D7FC01221146074801F071FD00210548A1
:1016E00001F017FE0121034801F0CDFC07B000BD59
:1016F000000C0140000800402DE9F0410A22414958
:10170000414801F079F93F4800884FF6FF7188425F
:1017100027D13C484088884223D13A488088884273
:101720001FD13848C08888421BD13648008988427A
:1017300017D134484089884213D13448344908606D
:101740003448354908600020344908606420344931
:101750000860344908600020334908603349087044
:101760004DE02849088805F0A3FE06460022304BCC
:1017700005F000FD044605F01BFC254908602149E1
:10178000488805F095FE06460022294B05F0F2FC3C
:10179000044605F00DFC204908601A49888805F0C8
:1017A00087FE06460022224B05F0E4FC044605F0C5
:1017B000FFFB1A4908601349C88805F079FE064600
:1017C00000221C4B05F0D6FC044605F02BFE144904
:1017D00008600C49088905F06BFE06460022154B8F
:1017E00005F0C8FC044605F01DFE0E4908600548DA
:1017F00040890D4908600348007B0C490870BDE82A
:10180000F08100007602002000E00008E7FBB93F0D
:1018100030000020E17A143F34000020380000201E
:10182000080000200C0000207400002001000020AF
:1018300000408F400000594010B520492048006802
:1018400006F050FB044606F0CDFA1E4908801B49FD
:101850001D48006806F046FB044606F0C3FA194925
:10186000488016491948006806F03CFB044606F01B
:10187000B9FA144988801648006800EBC00101EBF2
:1018800000104FF6FF7101EA80000E49C880114830
:10189000006800EBC00101EB00104FF6FF7101EA98
:1018A0008000084908810C48008848810B4800786E
:1018B00088810A220A4801F0D5F810BD00007A4458
:1018C000300000208A020020340000203800002070
:1018D000080000200C0000207400002001000020FF
:1018E00000E0000830B500228B071C0F0F2303FA1D
:1018F00004F20B4B8C1053F824309343084C8D109A
:1019000044F8253023468C1053F824308C07240FDC
:1019100000FA04F42343024C8D1044F8253030BD06
:10192000080001402DE9F041024600250026002074
:1019300000230024002791F803C00CF00F0591F854
:1019400003C00CF0100CBCF1000F03D091F802C0E2
:101950004CEA050591F800C0BCF1000F31D01468C5
:1019600000202BE04FF0010C0CFA00F3B1F800C09E
:101970000CEA03069E4220D183004FF00F0C0CFAB4
:1019800003F7BC4305FA03FC4CEA040491F803C0D6
:10199000BCF1280F06D14FF0010C0CFA00FCC2F884
:1019A00014C00AE091F803C0BCF1480F05D14FF014
:1019B000010C0CFA00FCC2F810C0401C0828D1D35E
:1019C0001460B1F800C0BCF1FF0F34DD5468002092
:1019D0002EE000F1080C4FF0010808FA0CF3B1F802
:1019E00000C00CEA03069E4221D183004FF00F0C89
:1019F0000CFA03F7BC4305FA03FC4CEA040491F823
:101A000003C0BCF1280F05D100F1080C08FA0CF84E
:101A1000C2F8148091F803C0BCF1480F07D100F15F
:101A2000080C4FF0010808FA0CF8C2F81080401CAE
:101A30000828CED35460BDE8F081000010B50446FC
:101A40000723012221460948FFF704FB012107482B
:101A5000FFF761FB00BF02210448FFF7BFFA00282F
:101A6000F9D00248FFF7B6FA10BD0000002401408B
:101A700010B500F089FC10BD2DE9F04F87B00420AF
:101A8000FFF7DCFF019005F013FD80464FF0663252
:101A90000F4B05F021FD064600220E4B05F01CFD04
:101AA000044600220C4B05F017FD00220B4BCDE93C
:101AB000020105F05FFB0022094BCDE9040105F0AE
:101AC00059FB824605F0AEFC07B0BDE8F08F000080
:101AD00066660A4000002740000059400000F83FB9
:101AE0000000B04000BFFEE770B505460E4600247A
:101AF00000F0EAF8284600F0B5F8641C00F03CF964
:101B0000304600F0AFF8641C00F036F900F0DCF865
:101B1000691CC8B200F0A6F8641C00F02DF9002082
:101B200000F068F8044600F003F9204670BD00009C
:101B300010B500200E4908600E48006820F0F00043
:101B40000C4908600846006840F03000086000203A
:101B50000949C1F8A401012002F01CFD012004493B
:101B6000086002F017FD00200349C1F8A00110BD74
:101B7000A0812142040C01400080214208B50121CE
:101B8000082000F077FB4FF44070ADF80000102003
:101B90008DF8030003208DF8020069460148FFF725
:101BA000C1FE08BD000C014010B500200E490860C0
:101BB0000E48006820F0F0000C49086008460068F4
:101BC00040F03000086001200949C1F8A40102F08A
:101BD000E1FC01200449086002F0DCFC002004491B
:101BE000C1F8A00110BD0000A0812142040C0140F9
:101BF0000080214270B5054600241748006820F097
:101C0000F000154908600846006840F08000086050
:101C1000002616E0002011490860022002F0BAFCFC
:101C200001200F49C1F8A0016006040E0B487C3862
:101C3000006808B1601CC4B2022002F0ABFC701C4A
:101C4000C6B2082EE6DB15B1FFF772FF01E0FFF721
:101C5000ABFF204670BD0000040C0140A081214272
:101C60000080214270B504461448006820F0F0005E
:101C7000124908600846006840F030000860002003
:101C80000F490860002516E0E0090D49091D0860AC
:101C90006006040E012002F07DFC01200949C1F814
:101CA000A00102F077FC002005490860012002F045
:101CB00071FC681CC5B2082DE6DB70BD040C014048
:101CC000A08121420080214210B51648006820F012
:101CD000F000144908600846006840F030000860D1
:101CE0000120114908601148D0F8240108B90020EA
:101CF00010BD01200C49091F086002F04BFC0020B8
:101D00000A49C1F8A40108488038006808B10020D9
:101D1000EEE7012002F03EFC00200349091F0860A5
:101D20000120E5E7040C0140A4812142008021420A
:101D300010B50E48006820F0F0000C490860084615
:101D4000006840F030000860002009490860094937
:101D5000C1F8A401012002F01DFC01200449086023
:101D60000449C1F8A40102F015FC10BD040C0140A7
:101D7000A08121420080214210B50024154800684E
:101D800020F0F000134908600846006840F0800029
:101D9000086001201049086002F0FCFB01200F4997
:101DA000C1F8A00102F0F6FB0AE0601CC4B2322CBC
:101DB00003DDFFF7BDFF002010BD012002F0EAFBAC
:101DC0000548803800680028EFD10349091F0860E2
:101DD0000120F1E7040C0140A4812142008021424E
:101DE00070B505460E46144631462846FFF77CFE80
:101DF0002070012070BDF8B506460F4614461D46FA
:101E00006A4639463046FFF7EBFF2DB10120A0406E
:101E10009DF80010084305E00120A0409DF8001047
:101E200021EA0000C0B200909DF8002039463046FB
:101E300000F036F8F8BD2DE9F84307468846144609
:101E40001D46089E6A4641463846FFF7C9FF28B33B
:101E5000601CFF2101FA00F0C4F108012944491E69
:101E6000FF220A41104300F0FF09C5F1080006FAFD
:101E700000F0C6B2C4F1070006419DF8000000EA78
:101E8000090000909DF80000304300909DF800206C
:101E90004146384600F004F8BDE8F8830020FBE72F
:101EA00037B504460D4602AB01222946204600F014
:101EB00001F83EBD2DE9F04180460D4616461F460D
:101EC0000024FFF701FF4046FFF7CCFEFFF754FF69
:101ED0002846FFF7C7FEFFF74FFF00BF06E0385D5B
:101EE000FFF7C0FEFFF748FF601CC4B2B442F6DB48
:101EF000FFF71EFF0120BDE8F08100000146490602
:101F0000084A926942F00102064B9A61064A5268F9
:101F100022F0E062044B5A601A4652680A435A6043
:101F200070470000001002400000014008B5012188
:101F3000042000F09FF94FF40040ADF80000482065
:101F40008DF8030069460248FFF7ECFC08BD00006D
:101F50000008014008B50121042000F08BF94FF47E
:101F60008050ADF8000010208DF8030003208DF89C
:101F7000020069460148FFF7D5FC08BD0008014092
:101F800018B90021094A11600FE009490968491C84
:101F9000074A1160814208D104490968C943054ACA
:101FA000C2F8B0110021024A11607047B00121420D
:101FB000A80000200000214210B5022000F010F817
:101FC000012000F021F8002000F014F8002000F0BB
:101FD00037F8002000F02BF8002000F01FF810BDAB
:101FE00038B50446032302226B21D0200094FFF76A
:101FF00022FF38BD38B50446022304221C21D0201C
:102000000094FFF718FF38BD38B5044602230422B8
:102010001B21D0200094FFF70EFF38BD10B50446F9
:10202000234601223721D020FFF7E5FE10BD10B571
:102030000446234605226A21D020FFF7DCFE10BDAE
:1020400010B50446234606226B21D020FFF7D3FEAD
:1020500010BD00000146072323EA01021202054BCE
:1020600018684FF6FF031840034B18431043014B09
:10207000186070470CED00E00000FA0500BFFEE7B5
:102080001FB50121084600F0F5F80121082000F0F5
:10209000F1F82020ADF80C0048208DF80F0003A9BE
:1020A0001148FFF73FFC05210120FFF71BFC202012
:1020B000019000208DF808000C208DF80900012007
:1020C0008DF80A0001A8FFF72FFA17208DF80000FD
:1020D00002208DF8010001208DF802008DF8030028
:1020E000684600F071F81FBD000C014008B50121E1
:1020F000082000F0BFF84FF47040ADF80000102049
:102100008DF8030003208DF8020069460148FFF7AF
:1021100009FC08BD000C014030B589B005460C46ED
:10212000FFF7E4FF0121C80200F0A4F80121042018
:1021300000F0A0F84FF41060ADF8200018208DF8E2
:10214000230003208DF8220008A91C48FFF7EAFBB2
:10215000ADF81850ADF814400020ADF81A00ADF8F5
:10216000160005A9164801F003F96020ADF8040037
:102170000120ADF806000020ADF80A00ADF80C0013
:1021800001A90F4801F024F801A90D4801F076F8E3
:1021900001210B4800F083FF0821094801F064F891
:1021A0000821074801F0A8F80121054800F05CFF6C
:1021B0000121034800F067FF09B030BD000801406D
:1021C000002C01407047000070B5002100230F2251
:1021D000C47804B3154C246804F4E064C4F5E064E6
:1021E000210AC1F10403CA40447804FA03F1847857
:1021F0001440214309010E4C0678A155047804F0DF
:102200001F050124AC4005786D11AD0005F1E025F6
:10221000C5F8004109E0047804F01F050124AC4032
:10222000044D0678761145F8264070BD0CED00E0AF
:1022300000E400E080E100E070470000014600207B
:10224000034A506820F44040084350607047000043
:102250000010024029B1064AD2690243044BDA61F8
:1022600004E0034AD2698243014BDA6170470000FF
:102270000010024029B1064A92690243044B9A6158
:1022800004E0034A92698243014B9A61704700005F
:102290000010024029B1064AD2680243044BDA60BA
:1022A00004E0034AD2688243014BDA6070470000C1
:1022B0000010024030B500210022002400232D4DE3
:1022C0006D6805F00C0121B1042905D0082923D13E
:1022D00005E0294D056022E0274D05601FE0254DF2
:1022E0006D6805F47012234D6D6805F48034022585
:1022F00005EB92421CB9214D554305600BE01D4D85
:102300006D6805F400351DB11C4D5543056002E0B4
:10231000194D5543056002E0174D056000BF00BF31
:10232000144D6D6805F0F0010909154D6B5C0568E9
:10233000DD4045600F4D6D6805F4E061090A104D00
:102340006B5C4568DD4085600A4D6D6805F4605141
:10235000C90A0B4D6B5C4568DD40C560054D6D6875
:1023600005F44041890B074D6B5CC568B5FBF3F57F
:10237000056130BD0010024000127A0000093D00E6
:1023800056010020660100202DE9F04F8BB008A80F
:10239000D54909ABD54ACDE90010D549D54802F059
:1023A000A1FAD148007800F0700000284AD0D14945
:1023B000B1F9000005F065F882460022CE4B04F02A
:1023C000D9FE80460022CD4B04F0D4FE0646CC4A0E
:1023D000CC4B05F081F8044604F0EAFDCA490860D8
:1023E000C449B1F9020005F04CF806460022C24B80
:1023F00004F0C0FE82460022C04B04F0BBFE8046C3
:10240000BF4AC04B05F068F8044604F0D1FDBE4950
:102410004860B849B1F9040005F033F806460022D7
:10242000B54B04F0A7FE82460022B44B04F0A2FE96
:102430008046B34AB34B05F04FF8044604F0B8FDAC
:10244000B1498860A848007800F0080000283BD017
:10245000A749B1F9000005F014F880460022AB4B03
:1024600004F088FE0646AA4AAA4B05F035F8044651
:1024700004F09EFDA84908609D49B1F9020005F0ED
:1024800000F880460022A14B04F074FE0646A04AE4
:10249000A04B05F021F8044604F08AFD9E494860EF
:1024A0009349B1F9040004F0ECFF80460022974BF9
:1024B00004F060FE0646964A964B05F00DF8044679
:1024C00004F076FD944988608748008800F48070A5
:1024D00000287DD08549086805F0A4FC04464FF02B
:1024E0009D4105F06DFB8D4908608049486805F005
:1024F00099FC04464FF09D4105F062FB8849086055
:102500007A49886805F08EFC04464FF09D4105F03D
:1025100057FB844908607549C86805F083FC044688
:102520004FF09D4105F04CFB7F4908607B480168F6
:102530004FF0804005F0D6FC06907A480168069876
:1025400005F0D0FC0790764801684FF0404005F058
:10255000C9FC069074480168069805F0C3FC8346E0
:10256000079905F0BFFA824605F090FA064601F099
:102570008FFC04464FF066326C4B04F0ADFF804692
:1025800004F016FD6A490860664801684FF0804013
:1025900005F0A8FC039063480168039805F0A2FCCD
:1025A00082465F4801684FF0404005F09BFC039075
:1025B0005B480168039805F095FC8346514605F099
:1025C0008FFD81464FF07E5105F08CFA044600E005
:1025D00086E005F05BFACDE90601504801684FF04E
:1025E000804005F07FFC83464D480168584605F061
:1025F00079FC81464B4801684FF0804005F072FC41
:10260000834649480168584605F06CFC82464946B5
:1026100005F068FA044605F039FACDE90401DDE970
:10262000062301F07DFE07464FF066323F4B04F073
:1026300053FF054604F0BCFC3E4908603A48016877
:10264000006805F04FFC059036480168006805F009
:1026500049FC049032480168006805F043FC029090
:102660002E480168006805F03DFC0190029905F0D4
:1026700039FA0390049905F033FD8346059905F076
:102680002FFD824605F002FA8046894626480168F9
:102690002248006805F026FC059022480168204881
:1026A000006805F01FFC0490059905F01BFA8346AD
:1026B0004FF0804105F016FC824605F0E7F94246EE
:1026C0004B46CDE9060101F02BFE06464FF066327F
:1026D000164B04F001FF044604F06AFC164908603A
:1026E0000BB0BDE8F08F0000B8000020BC01002056
:1026F000B2000020AC000020006050400080664026
:10270000F1D4C853FB210940CC0100200000D04087
:102710009A99999999992340D8010020D4000020D2
:10272000D8000020DC000020E000002066A64C401D
:10273000BC000020C0000020C40000200146022987
:1027400004D003290BD0042917D10FE04FF08042A9
:10275000928C10B200224FF080439A840FE0094A15
:10276000128810B20022074B1A8008E0064A12882D
:1027700010B20022044B1A8001E0002000BF00BF0D
:1027800070470000240400402408004010B51C4895
:10279000008801B21B48008800B200F03FFF1948D2
:1027A0000068194908601648006818490860184808
:1027B000006805F0FBFA1749086017480078401CCC
:1027C00015490870FFF758F9144909680844134976
:1027D000086011480078C82810D1084600680E49E2
:1027E000097890FBF1F00E4908600846006800F097
:1027F000EBFE0020084908700849086010BD000081
:102800002400002020000020640000206800002038
:10281000C4000020700000205C0000206000002048
:102820007400002008B512480068A0F2564040002D
:10283000032190FBF1F00F4908600846006800286A
:1028400001DA002008600B480068642802DD64207B
:10285000084908600848006800900848027808485D
:1028600001780448036807A0FDF702FD08BD0000D9
:10287000740000206C000020700000206800002020
:10288000640000207B4125643A25643A25643A259A
:10289000647D240070B5002500242B48006805F0F5
:1028A000C1FA06460121FEF7D7FD2848006805F069
:1028B000B9FA06460221FEF7CFFD2548006805F06B
:1028C000B1FA06460321FEF7C7FD2248006805F06D
:1028D000A9FA06460421FEF7BFFD1F48006805F06F
:1028E000A1FA06460521FEF7B7FD1C48006805F071
:1028F00099FA06460621FEF7AFFD07211848FEF7B4
:10290000ABFD08210020FEF7A7FD09210020FEF7FE
:10291000A3FD0A210020FEF79FFD0920FEF788FD98
:10292000054600BF0DE000BF0E48008800F04000E3
:102930000028F9D00C48005D0A49091D0880601C78
:10294000C4B2AC42EFDB70BD1000002020000020BC
:102950002800002014000020240000202C0000206B
:102960000040D644003801408001002070B5054683
:10297000002445F6FF7000F05FF80446C4B90D4826
:10298000006940F002000B49086108464561006992
:1029900040F04000086145F6FF7000F04DF8044635
:1029A000012C05D00348006920F0020001490861AC
:1029B000204670BD002002400948C16801F00100B6
:1029C00008B10120704701F0040008B10220F9E7C6
:1029D00001F0100008B10320F4E70020F2E7000046
:1029E000002002400348006940F08000014908616E
:1029F000704700000020024030B503460C461546E3
:102A0000002207E0184600F008F824F812009B1C8A
:102A1000501C82B2AA42F5DB30BD014608887047DF
:102A200002480349486003484860704723016745EE
:102A300000200240AB89EFCD70B5044600BFFFF720
:102A4000BBFF0546012D00D006E0012001F0A2FDEC
:102A5000601E84B2002CF2D100BF04B9FF252846C5
:102A600070BD00002DE9F05F80468A461746B8F138
:102A7000006F02D33348804501D3BDE8F09FFFF7D4
:102A8000CFFFA8F1006B4FEA9B25CBF34809C9F5AE
:102A90000074A74200DC3C464EE04FF0006101EBC1
:102AA00085208A142849FFF7A7FF00260BE009EBD1
:102AB0000600254931F810004FF6FF71884200D01A
:102AC00003E0701C86B2A642F1DB00BFA6421BDA0F
:102AD0004FF0006101EB8520FFF748FF002608E07A
:102AE0003AF8160006EB0901174A22F81100701C8B
:102AF00086B2A642F4DB4FF0006101EB85208A1418
:102B0000114900F043F804E022465146404600F0E7
:102B10003DF8A74200D110E06D1C4FF000090AEB10
:102B2000440A08EB4408381B87B2B7F5007F02DD82
:102B30004FF4007400E03C46AFE700BFFFF752FFE0
:102B400000BF9AE7000001089E02002070B505460C
:102B50000E46FF20FFF770FF044694B90A4800694B
:102B600040F00100084908612E80FF20FFF764FF54
:102B70000446012C05D00448006920F001000249F8
:102B80000861204670BD0000002002402DE9F041A0
:102B900005460E461746002407E036F8141028466E
:102BA000FFF7D4FFAD1C601C84B2BC42F5DBBDE86E
:102BB000F081704710B500F001F810BD0CB5002091
:102BC000019000903348006840F48030314908603B
:102BD00000BF3048006800F4003000900198401CAD
:102BE0000190009818B90198B0F5A06FF1D129486B
:102BF000006800F4003010B10120009001E00020D6
:102C000000900098012843D12348006840F010004C
:102C1000214908600846006820F003000860084663
:102C2000006840F0020008601A484068194948608E
:102C30000846406848600846406840F48060486044
:102C40000846406820F47C1048600846406840F41C
:102C5000E81048600846006840F08070086000BFD7
:102C60000C48006800F000700028F9D0094840685E
:102C700020F00300074948600846406840F0020021
:102C8000486000BF0348406800F00C000828F9D1F4
:102C90000CBD0000001002400020024010B564216D
:102CA00041F6F4202C4A126843429A4202DA424228
:102CB000294B1A60284A1268824201DD264A1060B8
:102CC000264A126843429A4202DA4242234B1A6071
:102CD000224A1268824201DD204A10601E4A1268B0
:102CE000002A07DA01221E4B1A6000221D4BC3F88E
:102CF000BC2106E000221A4B1A600122194BC3F8CE
:102D0000BC21154B1A68002A01DB134600E0534230
:102D10000B44154C2380114A1268002A08DA01225C
:102D20000F4B1B1F1A6000220E4BC3F8B02107E0A7
:102D300000220B4B1B1F1A6001220A4BC3F8B02163
:102D4000064B1A68002A01DB134600E053420B448D
:102D5000054C0C34238010BD280000202C000020DE
:102D6000B881214200802142342C0140042808D13E
:102D70004FF0E021096941F004014FF0E0221161B8
:102D800007E04FF0E021096921F004014FF0E02253
:102D9000116170477047000010B51348006840F09B
:102DA00001001149086008464068104908400E4972
:102DB0004860084600680E4908400B49086008460C
:102DC000006820F4802008600846406820F4FE0077
:102DD00048604FF41F008860FFF7ECFE4FF0006082
:102DE0000449086010BD0000001002400000FFF818
:102DF000FFFFF6FE08ED00E0F0B50C461546002298
:102E00000021068C4FF6FE773E400684028B018C33
:102E10004FF60C7632407E1C06EA03162E433243F0
:102E2000104EB0420ED0104EB0420BD0B0F1804FD9
:102E300008D00E4EB04205D00D4EB04202D00D4E1D
:102E4000B04206D14FF6FD76314044F001063143E1
:102E500005E04FF6F576314044F001063143028338
:102E60000184F0BD002C014000340140000400400A
:102E700000080040000C0040F0B50C46154600224A
:102E800000210026078C4FF6EF7C07EA0C07078429
:102E9000028B018C4FF6FF7707EA041640F6FF47D6
:102EA0003A404FF6FF7707EA03373A434FF6FF778A
:102EB00007EA05273A43114FB8420ED0104FB842E7
:102EC0000BD0B0F1804F08D00E4FB84205D00E4F56
:102ED000B84202D00D4FB84206D14FF6DF773940E5
:102EE00046F01007394305E04FF65F77394044F06C
:102EF0001007394302830184F0BD0000002C01401B
:102F0000003401400004004000080040000C004074
:102F1000F0B50C461546002200210026078C4FF61E
:102F2000FF6C07EA0C070784828B018C4FF6FF7752
:102F300007EA04264FF60C773A404FF6FF7707EA88
:102F400003172F433A43114FB8420ED0104FB842E7
:102F50000BD0B0F1804F08D00E4FB84205D00E4FC5
:102F6000B84202D00D4FB84206D14FF6FF57394054
:102F700046F48077394305E04FF2FF57394044F477
:102F80008077394382830184F0BD0000002C01402A
:102F9000003401400004004000080040000C0040E4
:102FA000F0B50C461546002200210026078C4EF68F
:102FB000FF7C07EA0C070784828B018C4FF6FF77B2
:102FC00007EA043640F6FF473A404FF6FF7707EA34
:102FD00005273A434FF6FF7707EA03373A43114F85
:102FE000B8420ED0104FB8420BD0B0F1804F08D08D
:102FF0000E4FB84205D00E4FB84202D00D4FB84226
:1030000006D14DF6FF77394046F48057394305E045
:1030100047F6FF57394044F480573943828301848F
:10302000F0BD0000002C01400034014000040040CD
:1030300000080040000C00404FF08040008A4FF034
:103040008040008A20F001004FF0804108827047E4
:10305000044800880348008820F0010001490880E6
:10306000704700001008004021B1028842F0800241
:10307000028004E002884FF67F731A400280704796
:10308000CA430282704721B1028842F001020280E5
:1030900004E002884FF6FE731A400280704731B197
:1030A000B0F8442042F40042A0F8442005E0B0F813
:1030B0004420C2F30E02A0F844207047F0B50C463D
:1030C00015461E460021002200230189028B038C35
:1030D0004FF6F877394021434FF6FC473A4040F22B
:1030E00001173A434FF6DD773B404FF6FF7707EA8B
:1030F00006172F433B43018102830384F0BD000088
:1031000070B505460C46244885420ED023488542BA
:103110000BD0B5F1804F08D02148854205D0214819
:10312000854202D02048854200D100E000BF2088BF
:1031300050B92389A28861882846FFF75DFEE1889F
:10314000284600F0E8F825E0208804280AD12389E1
:10315000A28861882846FFF78FFEE188284600F0A4
:10316000E3F817E0208808280AD12389A28861881B
:103170002846FFF7CDFEE188284600F0E2F809E096
:103180002389A28861882846FFF70AFFE18828463C
:1031900000F0E0F870BD0000002C01400034014058
:1031A0000004004000080040000C004000210180A5
:1031B0004180012181800021C180018170471AB1C5
:1031C00083890B43838102E083898B43838170472A
:1031D00070B5002400220023058C4FF6FE763540A2
:1031E0000584028C8388048B4FF68F752C40B51EA6
:1031F0002C400D882C43751E2A400D892A434D888A
:103200002A43144DA8420BD0134DA84208D0134DA9
:10321000A84205D0124DA84202D0124DA84213D1A7
:103220004FF6F7752A404D892A434FF6FB752A4021
:103230008D882A434FF6FF652B404FF6FF552B40F4
:103240008D892B43CD892B4383800483CD8885864C
:10325000028470BD002C0140003401400040014058
:1032600000440140004801400A460021018B4FF60E
:10327000F7731940114301837047000070B50022B5
:1032800000230024058C4EF6FF7635400584038C20
:103290008488828B48F6FF752A404FF6FF452A4006
:1032A0000D884FF6FF7606EA05252A434DF6FF7591
:1032B0002B400D8906EA05352B434D8806EA053576
:1032C0002B430B4DA84202D00A4DA84208D14BF621
:1032D000FF752C408D894FF6FF7606EA85152C4345
:1032E00084808283CD88A0F84050038470BD0000A4
:1032F000002C0140003401400A460021818B4FF22E
:10330000FF7319404FF6FF7303EA022319438183C9
:10331000704781847047028B4FF6F3731A40028323
:10332000028B0A4302837047028B4FF2FF331A402D
:103330000283028B4FF6FF7303EA01231A430283D1
:103340007047828B4FF6F3731A408283828B0A4355
:1033500082837047828B4FF2FF331A408283828BC5
:103360004FF6FF7303EA01231A438283704700007C
:10337000002202881D4B98420ED01D4B98420BD064
:10338000B0F1804F08D01B4B984205D01A4B9842A1
:1033900002D01A4B984204D14FF68F731A404B88D3
:1033A0001A43174B984207D0164B984204D04FF659
:1033B000FF431A40CB881A4302808B8883850B8891
:1033C00003850A4B98420BD0094B984208D00E4B0C
:1033D000984205D00D4B984202D00D4B984201D136
:1033E0000B7A03860123838270470000002C014082
:1033F000003401400004004000080040000C004080
:103400000010004000140040004001400044014012
:10341000004801404FF6FF71818000210180C1808A
:1034200041800172704700000C49096840F2564221
:10343000914202DB0A49097869B101200021094A59
:103440001160094AC2F8BC11064A121F1160064AEF
:10345000C2F8B01100E000207047000074000020A6
:1034600048010020B88121420080214200204E49BD
:10347000098801F0200100297ED04B49091D0988E7
:10348000C8B2242802D10021484A1170474909785E
:10349000112902D10021454A117044490A7809785E
:1034A000491C424B1970424988540A287BD109783B
:1034B000242978D13E498978303942F2107251433B
:1034C0003B4AD278303A02EB4203C3EBC21201EB23
:1034D000C20237490979303901EBC10303EB01110D
:1034E00002EB810232494979303901EB810102EB6B
:1034F00041022F498979303911442E4A11602C49F3
:1035000049782D2903D1114609684942116028499B
:10351000497A303942F210725143254A927A303A50
:1035200002EB4203C3EBC21201EBC2022049C97A8B
:10353000303901EBC10303EB011102EB81021C499D
:10354000097B303901EB810102EB41021849497BCB
:1035500030391144184A11601549097A2D2903D1CF
:1035600011460968494211601249096811B11249AE
:10357000096869B9012100E015E0104A11700D4990
:1035800009680F4A11600C4909680E4A11600AE087
:10359000084909680A4A116007490968094A11601F
:1035A0000021064A11707047004400403D01002090
:1035B000EC000020400100204401002048010020D0
:1035C000100000201400002070B5044600250A26D3
:1035D0007E200E4908703E20487022460CA10B4800
:1035E000801CFCF751FE0EE02846691CCDB207494D
:1035F000085C0949088000BF0748001F008800F0E8
:1036000040000028F8D0B542EEDB70BDFD00002080
:1036100042252B3036640A00044400402DE9F04175
:1036200004460D46002611277E200F4908703E20D3
:1036300048702B4622460DA10B48801CFCF724FE47
:103640000EE03046711CCEB20749085C0B49088079
:1036500000BF0A48001F008800F040000028F8D092
:10366000BE42EEDBBDE8F081FD00002045252B3099
:1036700036642C252B3036640A00000004440040D8
:1036800010B500202C217E221E4B1A703E225A704B
:1036900049229A70DA1C1C4B1C6814605C685460E8
:1036A0009B689360194B1C68D4605C6814619B68CC
:1036B0005361D21E164B1B68C2F81B30154B1B689A
:1036C000C2F81F30144B1B68C2F82330134B1B6821
:1036D000C2F827300A220B4B83F82B200EE002465B
:1036E000431CD8B2074B9A5C0D4B1A8000BF0C4AA2
:1036F000121F128802F04002002AF8D08842EEDB46
:1037000010BD0000FD000020CC010020D8010020E9
:10371000D4000020D8000020DC000020E0000020C1
:10372000044400402DE9F04188B040F22551E748BB
:1037300000F010FA002872D000200790E34800F053
:10374000C5FAC4B2E2480078002869D0412C67DB92
:103750005A2C65DC2046462C4BD008DCA0F14100F9
:10376000052877D2DFE800F0101C26333C005828EB
:1037700062D004DC472845D048286BD151E0592855
:103780006AD05A287FD175E0D2480068D2490860D3
:10379000D2480068D24908600020D249087073E01E
:1037A000CC480068CC4908600020CD490860CD496C
:1037B000087069E0C7480068C7490860C7480068E2
:1037C0004042C74908600020C64908705CE00020FC
:1037D000C1490860C24908600120C249087053E02D
:1037E0000020BD490860BE4908600120BD4908703D
:1037F0004AE00020B8490860B94908600120B94989
:10380000087041E0B34800684042B3490860B348DB
:103810000068B34908600020B249087034E051E103
:1038200033E00020AC490860AC480068AC4908604F
:103830000020AC49087027E0A64800680A30A54976
:103840000860A64800680A30A44908600120A5491C
:10385000087019E017E0FFE79E4800680A389D49A4
:1038600008609E4800680A389C49086001209D490C
:10387000087009E000209849086099490860012013
:103880009849087000E000BF1BE19748007839288C
:1038900002D10020944908707B2C04D100208C496F
:1038A000087091490870904801780078401C8E4A51
:1038B00010708E4844547D2CE6D101208449087054
:1038C0000021104602780078401C874B187087480A
:1038D00081544078512807D18448C078572803D1B3
:1038E000012083490870ECE080484078512807D1D6
:1038F0007E48C078502803D101207E490870E0E05E
:103900007A484078232864D17B48811E021F831F98
:10391000CDE90332CDE90510891F0A38821E031F45
:10392000CDE900200291821F74A17048FCF7C0FD10
:1039300071491039088803F0BBFD07460022774B18
:1039400003F018FC054603F033FB754908606A492B
:103950001039488803F0ACFD074600226F4B03F096
:1039600009FC054603F024FB6E49086062491039E2
:10397000888803F09DFD07460022684B03F0FAFBA0
:10398000054603F015FB684908605B491039C88893
:1039900003F08EFD07460022644B03F0EBFB054667
:1039A00003F040FD4B49086053491039088903F082
:1039B0007FFD074600225D4B03F0DCFB054603F06C
:1039C00031FD464908604C481038007B5849087062
:1039D00077E046484078302873DB44484078382800
:1039E0006FDC4248407830384349103901EB4003DE
:1039F00007AA50A13D48FCF75BFD9DF81C0030383C
:103A000007285CD2DFE800F004142434445B54003F
:103A100039491039088803F04BFD074600223F4B17
:103A200003F0A8FB054603F0C3FA3D49086047E0F0
:103A300031491039488803F03BFD07460022374BD7
:103A400003F098FB054603F0B3FA3649086037E007
:103A500029491039888803F02BFD074600222F4B97
:103A600003F088FB054603F0A3FA2F49086027E01E
:103A700021491039C88803F01BFD074600222B4B53
:103A800003F078FB054603F0CDFC1249086017E00F
:103A900019491039088903F00BFD07460022234B12
:103AA00003F068FB054603F0BDFC0C49086007E025
:103AB00011481038007B1E49087001E001E000BF8A
:103AC00000BF00BF08B0BDE8F08100000048004022
:103AD0005101002008000020100000200C000020F0
:103AE0001400002048010020500100209E06002004
:103AF000490100204A0100209A0200207B232575FD
:103B00003A25753A25753A25753A25753A25753A57
:103B100025753A25753A25757D00000000408F40D7
:103B20003000002034000020380000200000594000
:103B3000010000207B25633A25757D0021B1828933
:103B400042F40052828104E082894DF6FF731A40EC
:103B50008281704770B502460024002300250020B2
:103B600040F66A16B14200D100BFC1F3421501F020
:103B70001F03012606FA03F3012D02D19689334073
:103B800006E0022D02D1168A334001E0968A3340C6
:103B90000C12012606FA04F41688344013B10CB155
:103BA000012000E0002070BDF0B50346002400268F
:103BB0000025002040F66A17B94200D100BF184620
:103BC000C1F3421401F01F06012707FA06F5012C84
:103BD00001D10C3004E0022C01D1103000E014308F
:103BE0001AB107682F43076002E00768AF43076018
:103BF000F0BD00002DE9F04786B005460E460024D2
:103C0000A24600BFA1460027B08900B100BF2F46E1
:103C10002C8A4CF6FF700440F08804432C82AC8957
:103C20004EF6F3100440B088318908437189084387
:103C30000443AC81AC8A4FF6FF400440B089044392
:103C4000AC8201A8FEF736FB1F48874202D1DDF89F
:103C500010A001E0DDF80CA0A88900F4004040B1FC
:103C60000AEBCA0000EB0A1031684900B0FBF1F81A
:103C700007E00AEBCA0000EB0A1031688900B0FBCC
:103C8000F1F86420B8FBF0F004012009642101FB85
:103C90001089A88900F4004040B1322000EBC9002F
:103CA000B0FBF1F000F00700044308E0322000EB25
:103CB00009106421B0FBF1F000F00F0004432C81E7
:103CC00006B0BDE8F0870000003801400146888852
:103CD000C0F30800704700BFFEE7490050EAC1206A
:103CE00018BF04204A0D18BF40F0010040F2FF72D7
:103CF000B2EB515F08BF40F00200012808BF052069
:103D000070472DE9F0414F1E00EBC7010446D1E991
:103D1000000115461E4637F006020DD02A463346EE
:103D200003F0DAFB7F1E04EBC703D3E9002303F0A3
:103D300071F937F00602F1D1022F25D0042F13D0EC
:103D4000062F18BFBDE8F0812A46334603F0C4FBB6
:103D5000D4E90A2303F05EF92A46334603F0BCFB9C
:103D6000D4E9082303F056F92A46334603F0B4FB9E
:103D7000D4E9062303F04EF92A46334603F0ACFBA0
:103D8000D4E9042303F046F92A46334603F0A4FBA2
:103D9000D4E9022303F03EF92A46334603F09CFBA4
:103DA000D4E90023BDE8F04103F034B9012204F066
:103DB0003EBA03F02FB9002213461046114603F015
:103DC000D9B90000024A0020110704F030BA0000FF
:103DD00001FDFFFF30380A2801D201207047002082
:103DE0007047014600BF70472DE9FE4F06460F465B
:103DF0000025684601F0DCF9002442E056F8240072
:103E000057F82410A0EB010ABAF1000F01DB51466C
:103E100001E0CAF10001084604F004F883464FF0BF
:103E20008F4103F0CDFE80465DF82400002103F0B1
:103E300089FF16D05DF82410404603F0C1FE82468B
:103E40004FF07E5104F04CF9814629F0004A0F48AA
:103E5000416A504604F012F912D20120A0400543F5
:103E60000EE00A48C169404604F008F805D3074847
:103E7000016A404604F002F902D20120A040054345
:103E8000641C032CBADB2846BDE8FE8FE4820008E0
:103E90002DE9F04D8D4F21F0004A86B005460C46C5
:103EA000BA452ADBAAEB070028430AD08848824596
:103EB00001DC1AD1CDB106B02846BDE8F04DFFF7C0
:103EC00075BF844A844B284603F006FB07460E461E
:103ED000824A834B2846214603F0FEFA06B03A4652
:103EE0003346BDE8F04D03F095B80120FCF7C8FC5F
:103EF00006B0BDE8F04DFFF75EBF7A48824542DA72
:103F0000BAF1795F0BDA2846FFF7E7FE042808BF0D
:103F1000FFF758FF284606B02146BDE8F08D2A4637
:103F20000B46104603F0D8FA834602466E480E460A
:103F30000B4606217844FFF7E4FE5A46334603F069
:103F4000CBFA804669488A465A463346042178446B
:103F5000FFF7D7FE5A46334603F0BEFA00223B462F
:103F600003F058F802460B464046514603F002F96A
:103F70002A46234603F0B0FA06B02A462346BDE897
:103F8000F04D03F047B8284624F0004100223D469A
:103F90003B4603F09FFB4FF0FF3204F048F9064622
:103FA000024653480F460B4606217844FFF7A9FE08
:103FB00032463B4603F090FACDE900014D483246C7
:103FC0003B4604217844FFF79CFE32463B4603F013
:103FD00083FA00222B4603F01DF8834602913046F7
:103FE000394602F0ABFE804643480D46504517DC8B
:103FF000DDE900015A46029B03F0BCF842462B461D
:1040000003F06AFA42462B4603F004F8012204F05A
:104010000EF9304A304B03F04FFC304A304B4CE045
:104020004FF0000A52460B46404602F0F3FFCDE93E
:10403000031052462B461046194603F04DFA3246FD
:104040003B4603F047FBDDE9033203F093F80646F5
:104050000F46DDE900015A46029B03F08BF88346C8
:10406000009101223046394604F0E1F8194A1A4B12
:1040700003F030FB06460F4601224046294604F075
:10408000D6F85A46009B03F027FA32463B4603F027
:1040900013FC06460F4601225046294604F0C7F895
:1040A0000E4DDFF858802A46434603F013FB324694
:1040B0003B4603F00FFB2A46434603F00BFB002C64
:1040C000D8BF81F0004106B0BDE8F08D0000F03FA0
:1040D0000000F07F075C143326A6913C182D445451
:1040E000FB21F93F0000E03FE04F0000F64F0000E9
:1040F0006A4F0000804F00003333EF3FFB21E93F60
:104100002DE9F84F04460D4621F000400091734917
:10411000814211DC7249884201DC06D12CB1204673
:104120002946BDE8F84FFFF741BE6E48002DCCBFD1
:104130006D496E49BDE8F88F6D49814211DD6D49C9
:104140008142D8BF4FF0FF366DDD20462946FFF78C
:10415000C4FD042808BFFFF735FE20462946BDE808
:10416000F88F6549654F25F00045814233DD64498C
:10417000814219DD002632464FF080432046294611
:1041800002F048FF80468A4601222046294604F074
:104190004EF800223B4603F08FFB4246534602F0A6
:1041A000E9FF04460D463EE001260022BA463B46A2
:1041B0002046294602F02EFF80460F460022534635
:1041C0002046294603F078FB42463B4602F0D2FFE8
:1041D00004460D4627E04B4981421BDDDFF828A14C
:1041E0000226002253462046294603F075F9002294
:1041F0003B4602F00FFF80460F4600225346204602
:10420000294603F059FB42463B4602F0B3FF044601
:104210000D4608E0032622462B4600203B4902F0CB
:10422000A9FF04460D4622462B461046194603F0C8
:1042300053F98B46824602460B4603F04DF907467A
:104240000246334888460B4606217844FFF759FD5D
:1042500052465B4603F040F982462E488B463A466A
:10426000434605217844FFF74CFD3A46434603F0A8
:1042700033F902460B46002E504659460CDA02F03E
:10428000C9FE22462B4603F027F901B022462B46F1
:10429000BDE8F04F03F01EBA02F0BCFE22462B46EA
:1042A00003F01AF91C4A7A4402EBC603D3E900234F
:1042B00003F002FB22462B4603F0FEFA174A7A442B
:1042C00002EBC603D3E9002303F004FA009A002AA4
:1042D000B8BF81F00041BDE8F88F00000000104435
:1042E0000000F07F182D4454FB21F93FFB21F9BF5A
:1042F0000000DC3F0000203E0000F33F0000F03FE4
:104300000000E63F008003400000F83F0000F0BFDF
:10431000824D0000404D0000DE4C0000A64C000025
:104320002DE9F04D9446CCF1000423F000464CEA10
:104330000404524F46EAD4749A46884621F000425B
:10434000BC4206D8454240EA050442EAD474BC4265
:1043500004D9BDE8F04D6246FFF72BBDAAF14055E8
:10436000A5F17F6555EA0C040BD0022404EAAA7477
:10437000434DDFF810E144EAD87452EA000B04D050
:104380000CE0BDE8F04DFFF7BBBE002C14BF012CC4
:10439000BDE8F08D022C30D0032C32D056EA0C0B45
:1043A0000AD0BE4220D1BA4209D126F0804622F07E
:1043B00080423346114617E000291ADB25E0DFF87A
:1043C000C8B0FB44002C04BFDBE90001BDE8F08D60
:1043D000012C02BFDBE9000181F00041BDE8F08D56
:1043E000022C0AD0032C0CD0BA4212D1B8F1000F23
:1043F0000BDA23482549BDE8F08D28462449BDE85D
:10440000F08D28467146BDE8F08D1D482149BDE874
:10441000F08D921B12153C2AC4BF19481D490EDCB1
:10442000BAF1000FBEBF12F13C0F0020014606DBBF
:10443000624602F09FFE21F00041FFF761FE002C72
:1044400008BFBDE8F08D012C04BF81F00041BDE83C
:10445000F08D114A114B022C07D003F02DFA2A4699
:10446000BDE8F04D0A4B03F027BA03F025FA2A46BF
:10447000BDE8F04D064B03F02DB900000000F07FC1
:10448000182D4454FB2109C03A4C0000FB21F9BF10
:10449000FB210940FB21F93F075C143326A6A13C10
:1044A0002DE9F0410446E07800F0C006E07800F025
:1044B0003F05607800F0010098B1EF102846E91739
:1044C00005EB5171C910A5EBC101491C01F0FF08B2
:1044D0000B48006820B10A484146026838469047B8
:1044E00000BF607800F0080030B10548406818B19E
:1044F000B011034A516888470020BDE8F0810000F0
:10450000AC01002010B56FF00400FEF72FFC0A4844
:1045100000680A49B0FBF1F00949087008460078C4
:1045200000EB4001C1EBC0104FF6FF7101EAC00083
:104530000449088010BD00006C01002000127A00C0
:1045400052010020540100200146114A12884A43BA
:104550004FF0E0235A6100229A611A46126942F034
:1045600001021A6100BF4FF0E022106900F0010261
:104570001AB100F48032002AF5D04FF0E02212691F
:1045800022F001024FF0E0231A6100229A61704785
:10459000540100200146114A12784A434FF0E023AB
:1045A0005A6100229A611A46126942F001021A61A8
:1045B00000BF4FF0E022106900F001021AB100F4D0
:1045C0008032002AF5D04FF0E022126922F0010279
:1045D0004FF0E0231A6100229A61704752010020D7
:1045E00038B5044664B120208DF8000028208DF8ED
:1045F000010030208DF8020038208DF8030004E01F
:10460000A32204216846FCF7B3F86A46042140F669
:104610009E2002F0CFF901F0BFFD38BD3EB5044643
:1046200002208DF80000CA208DF80100E3208DF8EB
:10463000020009208DF803006A460421682002F078
:10464000B9F9A3208DF8000004F0400048B1C02063
:104650008DF80100C8208DF80200C2208DF80300FB
:1046600006E0A3208DF801008DF802008DF803000C
:1046700004F4C07048B1C4208DF80400CC208DF83B
:104680000500C6208DF8060006E0A3208DF8040082
:104690008DF805008DF80600A3208DF807008DF831
:1046A00008008DF809006A460A2140F6A72002F0AA
:1046B00081F904F0030018B120208DF8000002E019
:1046C000D8208DF800006A46012140F6B62002F09D
:1046D00071F904F0200018B1012000F0ADF802E0FB
:1046E000002000F0A9F804F4C07008B304F480704E
:1046F00060B1B2208DF800008B208DF80100B6204B
:104700008DF802009B208DF803000BE0B0208DF89F
:10471000000080208DF80100B4208DF80200902068
:104720008DF803006A46042140F6A22002F042F907
:1047300004F0010020B3F8208DF800006A46012142
:104740004FF40B6002F036F9FA21072000F02CFC40
:10475000072000F0F3FB012000F013FC642000F0C0
:10476000F3FC4FF4FA7000F002FDC821304800F06D
:10477000A3FB282000F0BCFB0A2000F0CCFB08E0E3
:10478000D8208DF800006A4601214FF40B6002F03A
:1047900011F904F0020018B1D9208DF8000002E0F0
:1047A000D8208DF800006A46012140F23D7002F0E9
:1047B00001F904F0040018B1012000F069F802E0EA
:1047C000002000F065F804F0100018B10120FFF798
:1047D00007FF02E00020FFF703FF44F0080015493F
:1047E000488101F0D9FC00201249887304F0400090
:1047F00018B10846807B801D887304F4C07020B116
:104800000C48807B801D0B49887304F0140020B194
:104810000848807B10300749887304F0030020B1FA
:104820000448807B001D0349887300203EBD0000C2
:1048300009E3CA02AC0100203EB504466CB10EA1EA
:10484000D1E900208968CDE9002002916A4609215A
:104850004FF4976002F0AEF83EBD0AA2D2E9001014
:104860009268CDE9010200916A4609214FF49760F0
:1048700002F0A0F8F0E70000B8AAB38DB4980D35A7
:104880005D000000B8AAAAAAB088C3C5C70000008E
:1048900038B5044664B1C0208DF80000C2208DF800
:1048A0000100C4208DF80200C6208DF8030004E04A
:1048B0008B2204216846FBF75BFF6A46042140F621
:1048C000982002F077F801F067FC38BD10B5C823D6
:1048D0004FF48062024940F6F63001F0F1FA10BD63
:1048E0000C8300082DE9F04F8DB007468846154629
:1048F0009946DDE9166B0024002030806B49887BE7
:104900005A4605A901F0A8FB18B1601E0DB0BDE81C
:10491000F08F6648807A00F01400002867D09DF878
:10492000140000069DF8151040EA01409DF816108D
:1049300040EA01209DF81710084328609DF81800F0
:1049400000069DF8191040EA01409DF81A1040EA4F
:1049500001209DF81B10084368609DF81C000006AC
:104960009DF81D1040EA01409DF81E1040EA01200C
:104970009DF81F100843A8609DF8200000069DF8D0
:10498000211040EA01409DF8221040EA01209DF8E4
:1049900023100843E86004F11000C4B22868001432
:1049A0000190686800140290A86800140390E868F9
:1049B0000014049001984043029901FB01000399FF
:1049C00001FB0100049901FB010ABAF1706F02DBDF
:1049D000BAF1885F05DD01F0DFFB00203080401E6A
:1049E00094E7B6F9000040F48070308000BF2F4893
:1049F000807A00F0400020B305A9601C085C095DC6
:104A000040EA012000B2A8F8000005A9E01C095CFA
:104A100005AAA01C105C41EA002000B2A8F8020020
:104A200005A9601D095C201D105C41EA002000B250
:104A3000A8F80400A01DC4B2B6F9000040F00800B8
:104A400030801A48408900F4C07008B305A9601C82
:104A5000085C095D40EA012000B2388005A9E01C2D
:104A6000095C05AAA01C105C41EA002000B2788015
:104A700005A9601D095C201D105C41EA002000B200
:104A8000B880A01DC4B2B6F9000040F070003080BC
:104A90000648807A00F0030018B105A90819FFF74D
:104AA000FFFC484601F0C6FF00202FE7AC010020C4
:104AB00070B588B0064601A801F056F8BDF80400AC
:104AC0000021C90341EA5045C4034448007A00F07C
:104AD000030056F8200005904048007A00F00400DA
:104AE00010B10598404205903C48007AC0F3C100DF
:104AF00056F8200006903948007A00F0200010B1E6
:104B00000698404206903548007AC0F3811056F866
:104B1000200007903148008900F4807010B1079898
:104B2000404207900598C117A0FB042301FB043104
:104B300000FB0510810041EA927005900698C117AC
:104B4000A0FB042301FB043100FB0510810041EAB6
:104B5000927006900798C117A0FB042301FB043153
:104B600000FB0510810041EA927007900598000E45
:104B70008DF808000598000C8DF809000598000ACA
:104B80008DF80A000598C0B28DF80B000698000E4B
:104B90008DF80C000698000C8DF80D000698000AA0
:104BA0008DF80E000698C0B28DF80F000798000E21
:104BB0008DF810000798000C8DF811000798000A76
:104BC0008DF812000798C0B28DF8130002AA0C21CC
:104BD0004FF4257001F0EEFE08B070BDAC0100206E
:104BE00030B585B0044616A207CA02AB07C3C82C6D
:104BF00003DD4FF0FF3005B030BDC82090FBF4F06E
:104C0000401E85B2280A8DF80000E8B28DF8010038
:104C10006A46022140F2162001F0CCFE10B14FF09E
:104C2000FF30E8E702AA0C2140F6C12001F0C2FEE5
:104C300010B14FF0FF30DEE7044884810020DAE74E
:104C4000FEF2ABC4AAF1DFDFBBAFDFDFAC010020B7
:104C50001FB504464848007A00F0030054F82000CD
:104C600001904548007A00F0040010B101984042DC
:104C700001904148007AC0F3C10054F8200002902E
:104C80003D48007A00F0200010B1029840420290A6
:104C90003948007AC0F3811054F820000390364858
:104CA000008900F4807010B10398404203903349AA
:104CB000019880FB0101800F40EA810001902F499B
:104CC000029880FB0110820042EA917002902B4909
:104CD000039880FB0110820042EA917003900198D2
:104CE000000E8DF800000198000C8DF8010001986D
:104CF000000A8DF802000198C0B28DF803006A46E0
:104D000004214FF4747001F055FE18B14FF0FF30DC
:104D100004B010BD0298000E8DF800000298000C3F
:104D20008DF801000298000A8DF802000298C0B2C6
:104D30008DF803006A4604214FF4757001F03AFEC5
:104D400010B14FF0FF30E3E70398000E8DF800003C
:104D50000398000C8DF801000398000A8DF80200FA
:104D60000398C0B28DF803006A4604214FF47670B0
:104D700001F020FECCE70000AC01002009E3CA02EC
:104D800010B586B0044647A00068039046A00068AE
:104D9000029046A00068019045A00068009004F0D1
:104DA000030003A9085C8DF8140003A8C4F3C10133
:104DB000405C8DF8150003A8C4F38111405C8DF8A8
:104DC000160004F0030002A9085C8DF8100002A888
:104DD000C4F3C101405C8DF8110002A8C4F3811135
:104DE000405C8DF8120005AA032140F2264001F034
:104DF000E1FD18B14FF0FF3006B010BD04AA032149
:104E000040F22A4001F0D6FD10B14FF0FF30F3E739
:104E1000019805900098049004F0040058B19DF8A2
:104E2000140040F001008DF814009DF8100040F0CF
:104E300001008DF8100004F0200058B19DF8150015
:104E400040F001008DF815009DF8110040F00100C0
:104E50008DF8110004F4807058B19DF8160040F0F0
:104E600001008DF816009DF8120040F001008DF849
:104E7000120005AA03214FF4886001F09BFD10B1D8
:104E80004FF0FF30B8E704AA032140F2314001F0AF
:104E900091FD10B14FF0FF30AEE7064804810020CD
:104EA000AAE700004CCD6C000CC92C0036567600E9
:104EB00026466600AC010020F8B505460E464FF4C4
:104EC0007A7095FBF0F000FB06F4200E8DF80000E0
:104ED000200C8DF80100200A8DF80200E0B28DF858
:104EE00003006A4604214FF4AE7001F063FDF8BD83
:104EF00038B50446052094FBF0F084B220128DF8FA
:104F00000000E0B28DF801006A4602214FF4AD7056
:104F100001F050FD38BD38B50446052094FBF0F093
:104F200084B220128DF80000E0B28DF801006A46CC
:104F300002214FF4AC7001F03DFD38BD38B5044698
:104F40000020009004F0010020B19DF8000040F026
:104F50003000009004F0020020B19DF8000040F005
:104F60000C00009004F0040020B19DF8000040F017
:104F7000030000906A4601214FF4A47001F01AFD6D
:104F800038BD38B50446012C01DA012402E0042CB6
:104F900000DD0424601EC0B200906A46012140F288
:104FA0004F1001F007FD38BD2DE9FC4706460F46BE
:104FB00006F0070010B1B7F5C86F03DD4FF0FF3002
:104FC000BDE8FC87384602F045FF8146594902F0AA
:104FD000F7FD8046684600F0A1FD9DF8000002281C
:104FE00006D0042816D0082826D0102848D135E04D
:104FF0004FF08D41404602F075FF814602F0F2FE0F
:1050000084B24D49404602F06DFF814602F0EAFE4F
:1050100085B238E04FF08C41404602F063FF814694
:1050200002F0E0FE84B24549404602F05BFF814653
:1050300002F0D8FE85B226E04FF08B41404602F0E8
:1050400051FF814602F0CEFE84B23D49404602F057
:1050500049FF814602F0C6FE85B214E04FF08A4156
:10506000404602F03FFF814602F0BCFE84B2354963
:10507000404602F037FF814602F0B4FE85B202E0FE
:105080004FF0FF309CE700BF20128DF80400E0B223
:105090008DF8050028128DF80600E8B28DF807009B
:1050A00006F00100A0B101AA02214FF4EA7001F05C
:1050B00081FC10B14FF0FF3082E70DF106020221B2
:1050C0004FF4927001F076FC10B14FF0FF3077E7AB
:1050D00006F00200A0B101AA02214FF4EC7001F029
:1050E00069FC10B14FF0FF306AE70DF106020221B2
:1050F0004FF4947001F05EFC10B14FF0FF305FE7A9
:1051000006F00400A0B101AA02214FF4EE7001F0F4
:1051100051FC10B14FF0FF3052E70DF106020221B1
:105120004FF4967001F046FC10B14FF0FF3047E7A6
:10513000002045E700004843000040460000C0450D
:10514000000040450000C04438B50446052094FBEB
:10515000F0F085B228128DF80000E8B28DF8010059
:105160006A4602214FF4EF7001F024FC38BD38B5D7
:105170000446052094FBF0F085B228128DF800005B
:10518000E8B28DF801006A4602214FF4ED7001F09B
:1051900011FC38BD00BF054A128802F04002002A07
:1051A000F9D0C2B2014B1B1D1A8070470048004065
:1051B0007CB5054628494968087801AB04220D21D1
:1051C00000F010FB08B107207CBD9DF80700C0F37C
:1051D00001109DF8041001F0E00140EAE1008DF8B3
:1051E00000009DF80700C0F381009DF8051001F054
:1051F000E00140EAE1008DF801009DF8070000F0B1
:1052000003009DF8061001F0E00140EAE1008DF88E
:10521000020000241CE01DF8040018B9002045F825
:10522000240013E00D4845F8240006E055F824005A
:105230000B4902F057FE45F824001DF80400401EFB
:10524000C0B20DF804000028F0D100BF601CC4B249
:10525000032CE0DB0020B7E7780000207B14AE3E93
:105260001D5A843F2DE9F04F87B005460C46914604
:1052700001208DF8100000208DF81100FE4A126800
:10528000917CFD4A5268107804AB022200F0E5FAE6
:1052900020B14FF0FF3007B0BDE8F08FC820FFF716
:1052A00053F900208DF81000F34A1268D17BF24ABE
:1052B0005268107804AB012200F0CFFA10B14FF021
:1052C000FF30E8E7EC4A12685179EB4A52681078EF
:1052D00004AB012200F0C1FA10B14FF0FF30DAE761
:1052E000E54A1268917CE44A5268107804AB0122C6
:1052F00000F0B3FA10B14FF0FF30CCE7DE4A12688D
:10530000D17DDD4A5268107804AB012200F0A5FA85
:1053100010B14FF0FF30BEE7D74A12681179D64A74
:105320005268107804AB012200F097FA10B14FF0E8
:10533000FF30B0E70C208DF81000CF4A12681179C9
:10534000CD4A5268107804AB012200F086FA10B101
:105350004FF0FF309FE70F20FFF7F6F8C648806A4E
:10536000407A8DF81000C44A12689178C24A526897
:10537000107804AB012200F070FA10B14FF0FF304A
:1053800089E7BD48806A007A8DF81000BA4A126831
:105390005178B94A5268107804AB012200F05DFAE6
:1053A00010B14FF0FF3076E7B9F1000F07D0B248E7
:1053B000806A807A40F0E0008DF8100004E0AE488A
:1053C000806A807A8DF81000AB4A12689179AA4AF7
:1053D0005268107804AB012200F03FFA10B14FF090
:1053E000FF3058E7B9F1000F07D0A348806AC07AB0
:1053F00040F0E0008DF8100003E0A048C07A8DF87E
:1054000010009D4A1268D1799B4A5268107804AB0B
:10541000012200F022FA10B14FF0FF303BE7B9F162
:10542000000F02D0C820FFF78FF840208DF8100041
:10543000914A12681179904A5268107804AB01229F
:1054400000F00BFA10B14FF0FF3024E778208DF810
:105450001000894A12685179874A5268107804AB63
:10546000012200F0FAF910B14FF0FF3013E7834941
:105470008889FFF769F800208DF810007E4A1268CD
:1054800051797D4A5268107804AB012200F0E5F9A9
:1054900010B14FF0FF30FEE6774A1268917A764AF3
:1054A0005268107804AB022200F09CF910B14FF062
:1054B000FF30F0E69DF811009DF8101040EA012B36
:1054C0000C209BFBF0F0C6B20020A860686028604A
:1054D000A06060602060824665E0674A1268D17A09
:1054E000654A5268107804AB0C2200F07BF910B1C9
:1054F0004FF0FF30CFE69DF811009DF8101040EA04
:10550000012000B2ADF808009DF813009DF81210BC
:1055100040EA012000B2ADF80A009DF815009DF8A0
:10552000141040EA012000B2ADF80C00BDF90810DB
:10553000206808442060BDF90A1060680844606073
:10554000BDF90C10A0680844A0609DF817009DF8F4
:10555000161040EA012000B2ADF800009DF81900D5
:105560009DF8181040EA012000B2ADF802009DF845
:105570001B009DF81A1040EA012000B2ADF80400AB
:10558000BDF90010286808442860BDF90210686859
:1055900008446860BDF90410A8680844A8600AF1CE
:1055A000010000F0FF0AB24597DB3448D0F800C094
:1055B0002868C117090441EA104107046246002324
:1055C0003846FAF730FE32460023CDE90201FAF7F9
:1055D0002AFE28602948D0F800C06868C11709046D
:1055E00041EA10410704624600233846FAF71BFEE1
:1055F00032460023CDE90201FAF715FE68601F4824
:10560000D0F800C0A868C117090441EA1041070496
:10561000624600233846FAF706FE32460023CDE9FB
:105620000201FAF700FEA8601448D0F804C021680F
:10563000C817000440EA11480F04624600233846A8
:105640004146FAF7F0FD32460023CDE90201FAF7B0
:10565000EAFD20600948D0F804C06068C117090459
:1056600041EA10410704624600233846FAF7DBFDA1
:105670003246002304E0000078000020E4820008A5
:10568000CDE90201FAF7CFFD60601148D0F804C0FF
:10569000A068C117090441EA1041070462460023CB
:1056A0003846FAF7C0FD32460023CDE90201FAF789
:1056B000BAFDA060A068002804DDA068A0F58030D5
:1056C000A06003E0A06800F58030A0600020E2E563
:1056D000E48200082DE9FC5F06460F4600253D499F
:1056E0004968087801AB03220D2100F07BF810B166
:1056F0000720BDE8FC9F9DF8040000F01F008DF816
:1057000004009DF8050000F01F008DF805009DF8CD
:10571000060000F01F008DF80600002456E056F841
:10572000240057F82410A0EB010BBBF1000F01DBA4
:10573000594601E0CBF10001084602F073FB4FF03F
:105740008F41009002F03CFA814601A8005D68B3E9
:105750002149086802F07EFB834659461F4802F043
:105760002FFA804604E01E49404602F0BBFB80460B
:1057700001A8005D401EC0B201A908550028F2D161
:105780004146484602F01CFA83464FF07E5102F033
:10579000A7FC82462AF0004B0F488169584602F068
:1057A0006DFC12D20120A04005430EE00A480169B9
:1057B000484602F063FB05D307484169484602F0BA
:1057C0005DFC02D20120A0400543641C032CA6DB33
:1057D00028468EE778000020E482000800B04C459F
:1057E00054E3853F2DE9F04106460F4614461D4619
:1057F000FCF76AFA10B90120BDE8F0817106080EC5
:10580000FCF730FAFCF7B8FA18B9FCF791FA012066
:10581000F2E73846FCF726FAFCF7AEFAFCF754FA42
:10582000012101EB4601C8B2FCF71CFAFCF7A4FA0F
:105830000DE0012C04D10020FCF7DCF9287003E016
:105840000120FCF7D7F928706D1C601EC4B2002C33
:10585000EFD1FCF76DFA0020CEE72DE9F0410546C7
:105860000E4617469846FCF72FFA10B90120BDE8FE
:10587000F0816906080EFCF7F5F9FCF77DFA18B916
:10588000FCF756FA0120F2E73046FCF7EBF9FCF79B
:1058900073FA00240BE018F80400FCF7E3F9FCF7B6
:1058A0006BFA18B9FCF744FA0020E0E7641CBC422C
:1058B000F1DBFCF73DFA0020D9E770B50546284634
:1058C00000F00FF80446E81C00F00BF844EAC000B2
:1058D00084B2A81D00F005F844EA801084B2204686
:1058E00070BD014691F90020002A01DD00201EE074
:1058F00091F90020002A01DA042018E091F9012032
:10590000002A01DD012012E091F90120002A01DACC
:1059100005200CE091F90220002A01DD022006E0BA
:1059200091F90220002A01DA062000E007207047E2
:1059300086B0FEF7E7FD4FF47A3001F0E1FA44A0BB
:1059400001F022FA0220FCF7D9FA0120FCF7D6FA7E
:10595000FCF700FBFCF7EAFA0220FCF77BFB0021D6
:1059600041F61F40FCF7D8FB4FF4613001F022FAFA
:105970004FF4165001F070FAFBF720FEFBF76EFEB5
:10598000FBF7DAFBFCF7FAF8FCF716FBFBF71CFC5D
:10599000FCF776FBFBF7B0FE58E03048007890B19A
:1059A00000202E490870FCF7F1FEFCF761F8FDF7C6
:1059B00067FE2B48007808B1FCF734FF29480078CF
:1059C00008B1FCF767FF2848007820B1002026497D
:1059D0000870FBF731FF25480078002836D00020FA
:1059E0002249087022492348006802F07BFA0746E2
:1059F00002F0DCF904461E491F48006802F072FA02
:105A0000074602F0D3F9054619491C48006802F020
:105A100069FA074602F0CAF906460020104A1278D1
:105A2000174B1B68CDE903200293059015480068C9
:105A300064214143144800686422504323462A46A7
:105A4000CDE90001314611A0FAF712FCA5E70000EC
:105A50007561727431206F6B0D0A00000400002024
:105A60000100002000000020490100204A01002020
:105A700000007A443800002034000020300000206C
:105A8000740000200C000020080000207B432564E7
:105A90003A25643A25643A25643A25643A25643AFD
:105AA00025643A25643A25647D24000070B50446D7
:105AB000002624F00104184890F8240008B10020C2
:105AC00070BD1548807A10B94FF0FF30F8E71248E2
:105AD000057C807A2040104908740846007CA0426A
