:020000040800F2
:10000000E80D002071050008F1010008F301000867
:10001000F7010008FB010008FF01000800000000D4
:1000200000000000000000000000000003020008C3
:10003000050200080000000007020008090200088D
:100040008B0500088B0500088B0500088B05000850
:100050008B0500088B0500088B0500088B05000840
:100060008B0500088B0500088B0500088B05000830
:100070008B0500088B0500088B0500088B05000820
:100080008B0500088B0500088B0500088B05000810
:100090008B0500088B0500088B0500084D450008FE
:1000A0008B0500088B0500088B0500088B050008F0
:1000B000A5300008612D00088D3000088B05000870
:1000C0008B0500088B0500088B0500088B050008D0
:1000D0008B0500088B050008FD400008B1360008BC
:1000E0008B0500088B0500088B05000800F002F85E
:1000F00000F068F80AA090E8000C82448344AAF15A
:100100000107DA4501D100F05DF8AFF2090EBAE857
:100110000F0013F0010F18BFFB1A43F0010318473B
:10012000F8BA000018BB00000A444FF0000C10F8A9
:10013000013B13F0070408BF10F8014B1D1108BF65
:1001400010F8015B641E05D010F8016B641E01F805
:10015000016BF9D113F0080F1EBF10F8014BAD1C55
:100160000C1B09D16D1E58BF01F801CBFAD505E073
:1001700014F8016B01F8016B6D1EF9D59142D6D3CD
:10018000704700000023002400250026103A28BFF5
:1001900078C1FBD8520728BF30C148BF0B607047F9
:1001A000642908F0EF82002070471FB509F0CCF8F1
:1001B00004000020002109F0BDFC401C60601FBD50
:1001C00010B510BD09F08CF81146FFF7EEFF00F0F6
:1001D0000DF909F0B3F803B4FFF7F2FF03BC03F025
:1001E00058FA000030BF72B662B680F308887047D4
:1001F000704700BFFEE700BFFEE700BFFEE700BF9D
:10020000FEE7704770477047704700000CB500204C
:10021000019000906C48006840F480306A490860A2
:1002200000BF6948006800F4003000900198401C4D
:100230000190009818B90198B0F5A06FF1D162480B
:10024000006800F4003010B10120009001E00020AF
:1002500000900098012843D15C48006840F01000ED
:100260005A4908600846006820F003000860084604
:10027000006840F0020008605348406852494860F6
:100280000846406848600846406840F4806048601E
:100290000846406820F47C1048600846406840F4F6
:1002A000E81048600846006840F08070086000BFB1
:1002B0004548006800F000700028F9D042484068C6
:1002C00020F00300404948600846406840F00200C2
:1002D000486000BF3C48406800F00C000828F9D195
:1002E0000CBD10B5FFF792FF10BD10B53648006881
:1002F00040F001003449086008464068344908402D
:100300003149486008460068324908402E49086073
:100310000846006820F4802008600846406820F401
:10032000FE0048604FF41F008860FFF7DAFF4FF0CF
:1003300000602949086010BD10B50021002000228E
:10034000214B5B6803F00C0121B1042906D0082978
:1003500028D107E0214B224C236027E01F4B204C83
:10036000236023E0184B5B6803F47010164B5B6846
:1003700003F48032022303EB904022B9194B43432C
:10038000174C23600DE0104B5B6803F4003323B17E
:10039000144B4343124C236003E0104B4343104C77
:1003A000236003E00D4B0E4C236000BF00BF064BE3
:1003B0005B68C3F303130C4CE15C094B1B68CB4037
:1003C000074C236010BD00000010024000200240D6
:1003D0000000FFF8FFFFF6FE08ED00E000127A00D3
:1003E0000000002000093D000400002086B002F05B
:1003F00095F84FF47A3002F06CFA45A002F056FA04
:10040000022002F0E5F9012002F0E2F902F0A6FA7A
:1004100002F0D6FA022002F0F1F8002141F61F4066
:1004200002F020FD4FF4613003F092FD4FF41650BE
:1004300003F0E0F802F06EFD02F0B9FD02F078FB87
:1004400002F044FE07F0C0FD07F0D2FD03F046FBCA
:1004500003F08FFC5AE031480078A0B100202F490A
:10046000087004F0B1FA2E48007804F0CEF903F0D9
:1004700004FE2C48007808B107F01EF92A480078DD
:1004800008B107F03EF92948007820B1002027493B
:10049000087003F0F3FC26480078002836D00020CE
:1004A000234908702349244800680AF0F3FA0746F4
:1004B0000AF054FA04461F49204800680AF0EAFA94
:1004C00007460AF04BFA05461A491D4800680AF02B
:1004D000E1FA07460AF042FA06460020114A12786D
:1004E000184B1B68CDE9032002930590164800685D
:1004F00064214143154800686422504323462A463C
:10050000CDE90001314612A008F0F4F8A3E700009D
:100510007561727431206F6B0D0A00003900002084
:10052000640000203A0000203B0000203C00002036
:100530003D00002000007A44300000202C00002004
:10054000280000203400002024000020200000208B
:100550007B4325643A25643A25643A25643A256448
:100560003A25643A25643A25643A25647D240000DE
:100570000948804709480047FEE7FEE7FEE7FEE737
:10058000FEE7FEE7FEE7FEE7FEE7FEE70448054973
:10059000054A064B70470000EB020008ED0000081A
:1005A000E8070020E80D0020E8090020E809002005
:1005B00031490143314A1160704770B50021002371
:1005C0000F22C47804B32D4C246804F4E064C4F50D
:1005D000E064210AC1F10403CA40447804FA03F13B
:1005E0008478144021430901254C0678A1550478EC
:1005F00004F01F050124AC4005786D11AD0005F134
:10060000E025C5F8004109E0047804F01F05012445
:10061000AC401C4D0678761145F8264070BD1A4A4C
:100620000A400243154B1B1F1A60704739B1134A29
:10063000121D12680243114B1B1D1A6006E00F4A7F
:10064000121D126882430D4B1B1D1A60704704284F
:1006500008D14FF0E021096941F004014FF0E02298
:10066000116107E04FF0E021096921F004014FF02A
:10067000E0221161704700000000FA050CED00E077
:1006800000E400E080E100E080FFFF1F10B50446B9
:10069000FA48844208D10121401500F0E3FD002111
:1006A000601500F0DFFD17E0F548844208D1012114
:1006B000001500F0D7FD0021201500F0D3FD0BE060
:1006C000F048844208D10121C80300F0CBFD00218D
:1006D0004FF4004000F0C6FD10BD30B502460020CA
:1006E00000235068E84C20400D790C6844EA05244A
:1006F000204350609068E54C2040D1E902542C43DF
:100700004D7944EA450420439060D06A20F470009B
:100710000C7C641EE4B2234340EA0350D06230BD37
:1007200000210160017141718160C160012101748A
:10073000704721B1826842F00102826003E0826862
:1007400022F001028260704721B1826842F4807217
:10075000826003E0826822F480728260704710B584
:100760000023CBB21AB144681C43446002E04468E1
:100770009C43446010BD816841F00801816070476E
:10078000014600208A6802F008020AB1012000E058
:1007900000207047816841F0040181607047014684
:1007A00000208A6802F004020AB1012000E0002063
:1007B000704721B1826842F4A002826003E082683F
:1007C00022F4A00282607047014600208A6802F489
:1007D00080020AB1012000E00020704710B50A46EF
:1007E00000210023416821F46041531E41EA433156
:1007F000416010BD21B1426842F40062426003E0F2
:10080000426822F4006242607047F0B504460D462B
:1008100000200021092D11DDE068A5F10A0606EB94
:100820004607072606FA07F18843A5F10A0606EBF4
:10083000460603FA06F10843E0600CE0206905EB88
:100840004507072606FA07F1884305EB450603FA34
:1008500006F108432061072A0FDA606B561E06EB8B
:1008600086071F2606FA07F18843561E06EB860602
:1008700005FA06F10843606322E00D2A0FDA206BC7
:10088000D61F06EB86071F2606FA07F18843D61FF8
:1008900006EB860605FA06F10843206310E0E06ADD
:1008A000A2F10D0606EB86071F2606FA07F188431C
:1008B000A2F10D0606EB860605FA06F10843E06292
:1008C000F0BD21B1826842F48012826003E0826848
:1008D00022F48012826070470146C86C80B2704773
:1008E00066484C300068704721B1426842F480622B
:1008F000426003E0426822F480624260704721B1A6
:10090000426842F48052426003E0426822F480521E
:10091000426070470A460021816821F4E04111439A
:100920008160704721B1826842F40042826003E036
:10093000826822F400428260704721B1826842F4EA
:100940000212826003E0826822F402128260704721
:10095000014600208A6802F400120AB1012000E07A
:1009600000207047F0B504461546002000220026FE
:10097000092911DDE068A1F10A0707EB470C0727F9
:1009800007FA0CF29043A1F10A0707EB470703FAB5
:1009900007F21043E0600CE0206901EB410C0727EF
:1009A00007FA0CF2904301EB410703FA07F21043F8
:1009B0002061A06BC0F30156EF1C06F1010CA7EB00
:1009C0000C0707EB870C1F2707FA0CF29043EF1C6C
:1009D00006F1010CA7EB0C0707EB870701FA07F2FA
:1009E0001043A063F0BD10B50A4600210023816BBF
:1009F00021F44011531E41EA0351816310BD08B533
:100A0000002300930090009B0B440093009B1A600E
:100A100008BD08B5024600200090009201F12800B0
:100A2000009B184400900098006880B208BD0A46F8
:100A300000214168164B19401143416070474162E3
:100A4000826270470A460021416821F01F0111436C
:100A50004160704740B109490831096841F400011B
:100A6000064A0832116007E004490831096821F498
:100A70000001024A08321160704700000024014062
:100A800000280140003C0140FFFEF0FFFDF7F1FFB0
:100A9000FFFD3FFF0246002013680B400BB1012011
:100AA00000E000207047CA430260704770B50246FC
:100AB0000020002300240B125568CEB205EA06047C
:100AC00015681D4015B10CB1012000E0002070BD7B
:100AD00000220A12D34303607047000000204449FB
:100AE0000860091D0860091D0860091D086041486B
:100AF0003F4914310860704700213D498279002A3E
:100B00003AD00A46126803689A430B461A600A1DD7
:100B1000126803689A430B1D1A60027911440A682F
:100B200003681A430A60324A0832126803689A431B
:100B30002F4B08331A601A1D126803689A432C4B16
:100B40000C331A604279102A0ED11A1F12680368FA
:100B50001A43274B08331A601A1D126803681A4398
:100B6000234B0C331A600DE02149427911440A6885
:100B700003681A430A6005E0027911440A680368B1
:100B80009A430A6070470021016001710C21417194
:100B90000021817170471649103109680143144AD8
:100BA00010321160704701460020114A1432126859
:100BB0000A400AB1012000E0002070470C491431BE
:100BC00008607047014600200022094B1B6803EAB9
:100BD0000102074B14331B680B4013B10AB101200B
:100BE00000E000207047024914310860704700009F
:100BF00000040140FFFF0F0010B50446CC488442BA
:100C000008D10121042000F02DFB0021042000F078
:100C100029FB46E0C748844208D10121082000F0A2
:100C200021FB0021082000F01DFB3AE0C24884426D
:100C300008D10121102000F015FB0021102000F048
:100C400011FB2EE0BD48844208D10121202000F094
:100C500009FB0021202000F005FB22E0B848844277
:100C600008D10121402000F0FDFA0021402000F0D1
:100C7000F9FA16E0B348844208D10121802000F03F
:100C8000F1FA0021802000F0EDFA0AE0AE4884423B
:100C900007D10121801500F0E5FA0021A01500F030
:100CA000E1FA10BD10B50121084600F0DBFA002181
:100CB000012000F0D7FA10BD2DE9F04102460025D1
:100CC0000026002000230024002791F803C00CF028
:100CD0000F0591F803C00CF0100CBCF1000F03D00D
:100CE00091F802C04CEA050591F800C0BCF1000F74
:100CF00031D0146800202BE04FF0010C0CFA00F307
:100D0000B1F800C00CEA03069E4220D183004FF0E8
:100D10000F0C0CFA03F7BC4305FA03FC4CEA04047D
:100D200091F803C0BCF1280F06D14FF0010C0CFA6A
:100D300000FCC2F814C00AE091F803C0BCF1480FEF
:100D400005D14FF0010C0CFA00FCC2F810C0401C99
:100D50000828D1D31460B1F800C0BCF1FF0F34DD16
:100D6000546800202EE000F1080C4FF0010808FA4A
:100D70000CF3B1F800C00CEA03069E4221D18300B7
:100D80004FF00F0C0CFA03F7BC4305FA03FC4CEAD6
:100D9000040491F803C0BCF1280F05D100F1080C40
:100DA00008FA0CF8C2F8148091F803C0BCF1480F9F
:100DB00007D100F1080C4FF0010808FA0CF8C2F84E
:100DC0001080401C0828CED35460BDE8F0814FF657
:100DD000FF710180022181700421C17070470246B9
:100DE000002093680B400BB1012000E00020704709
:100DF0000146886880B2704702460020D3680B40E5
:100E00000BB1012000E0002070470146C86880B2A5
:100E1000704701617047416170470AB1016100E0AC
:100E200041617047C16070474FF480320A4382616C
:100E30008161826182698269704702460020434B6A
:100E400018684FF68073184040EA021008433F4B81
:100E5000186070473E49C8617047F0B50A460023E4
:100E600000240021002500F00046B6F1004F02D119
:100E7000364EF16901E0354E7168C0F3034583B227
:100E800000F44016B6F5401F08D121F070612F4ED6
:100E9000766826F070662D4F7E6012E000F48016B2
:100EA000B6F5801F06D1032606FA05F4A14341F0EA
:100EB000706106E0460D360103FA06F6B14341F0D3
:100EC000706122B1460D360103FA06F6314300F097
:100ED0000046B6F1004F02D11C4EF16101E01B4EFD
:100EE0007160F0BD30B500228B071C0F0F2303FA91
:100EF00004F2164B08338C1053F824309343134CF0
:100F000008348D1044F8253023468C1053F82430D3
:100F10008C07240F00FA04F423430C4C08348D1082
:100F200044F8253030BD0A49DC31086070470000C4
:100F300000080140000C0140001001400014014075
:100F400000180140001C0140002001400000014049
:100F500000002042DF48006840F00100DD490860E1
:100F600008464068DC490840DA494860084600689D
:100F7000DA490840D74908600846006820F4802014
:100F800008600846406820F4FE0048604FF41F00E7
:100F900088607047CF49096821F48031CD4A1160DB
:100FA0001146096821F480211160B0F5803F03D01B
:100FB000B0F5802F0ED106E0C649096841F48031B2
:100FC000C44A116007E0C349096841F4A021C14A3D
:100FD000116000E000BF00BF704710B5014600225D
:100FE000002300204A11012A02D1BA4C236806E0EE
:100FF000022A02D1B74C236A01E0B64C636A01F0C1
:101000001F02012494401C400CB1012000E000208C
:1010100010BD38B5002000900024002500BF31200D
:10102000FFF7DBFF05460098401C00900098B0F5E4
:10103000A06F01D0002DF2D03120FFF7CEFF08B114
:10104000012400E00024204638BD01460020A14ACA
:10105000106820F0F80040EAC10010607047A04915
:1010600008607047024600209A4B586820F47C10B4
:1010700042EA01031843974B586070479849086645
:10108000704701460020934A506820F0030008434F
:10109000506070478F48406800F00C007047014670
:1010A00000208C4A506820F0F000084350607047E0
:1010B00001460020874A506820F4E06008435060F1
:1010C000704701460020834A506820F4605040EA8F
:1010D000C1005060704729B17E4A527A02437D4B6D
:1010E0005A7204E07B4A527A82437A4B5A727047B2
:1010F0007B49D8310860704701460020754A506826
:1011000020F440400843506070470021714A20326B
:101110001170704A82F82010012802D004280AD1E8
:1011200004E001216B4A2032117005E00521694A73
:101130002032117000E000BF00BF704769490860AD
:1011400070476449096A0143624A11627047654900
:1011500044390860704730B5002100220024002384
:101160005C4D6D6805F00C0121B1042905D00829FA
:1011700023D105E05C4D056022E05B4D05601FE07A
:10118000544D6D6805F47012524D6D6805F480344D
:10119000022505EB92421CB9544D554305600BE006
:1011A0004C4D6D6805F400351DB1504D554305603B
:1011B00002E04D4D5543056002E04B4D056000BF18
:1011C00000BF444D6D6805F0F0010909484D6B5CA6
:1011D0000568DD4045603F4D6D6805F4E061090A32
:1011E000434D6B5C4568DD4085603A4D6D6805F4A4
:1011F0006051C90A3E4D6B5C4568DD40C560354DA8
:101200006D6805F44041890B3A4D6B5CC568B5FBD0
:10121000F3F5056130BD29B12E4A526902432D4BC9
:101220005A6104E02B4A526982432A4B5A61704743
:1012300029B1284A92690243264B9A6104E0254A63
:1012400092698243234B9A61704729B1214AD2693E
:101250000243204BDA6104E01E4AD26982431D4BEF
:10126000DA61704729B11B4AD2680243194BDA6030
:1012700004E0184AD2688243164BDA60704729B1FD
:10128000144A12690243134B1A6104E0114A1269AD
:101290008243104B1A617047124940390860704709
:1012A0000F49C86470470B49C87170470948406AC4
:1012B00040F0807007494862704701460020054AA7
:1012C00092680A400AB1012000E0002070470149FD
:1012D00088727047001002400000FFF8FFFFF6FE22
:1012E000000042428004424200127A0000093D00A0
:1012F0009C000020AC00002010B50446FE4884424B
:1013000008D10121C014FFF7ADFF0021E014FFF761
:10131000A9FFC4E0B4F1804F08D101210846FFF7CE
:10132000AEFF00210120FFF7AAFFB8E0F348844296
:1013300008D101210220FFF7A2FF00210220FFF7C0
:101340009EFFACE0EE48844208D101210420FFF763
:1013500096FF00210420FFF792FFA0E0E9488442B5
:1013600008D101210820FFF78AFF00210820FFF79C
:1013700086FF94E0E448844208D101211020FFF761
:101380007EFF00211020FFF77AFF88E0DF488442CB
:1013900008D101212020FFF772FF00212020FFF754
:1013A0006EFF7CE0DA48844208D101214014FFF747
:1013B00059FF00216014FFF755FF70E0D5488442C3
:1013C00009D10121C804FFF74DFF00214FF400208F
:1013D000FFF748FF63E0D048844209D101210805A6
:1013E000FFF740FF00214FF48010FFF73BFF56E06E
:1013F000CA48844209D101214805FFF733FF002183
:101400004FF40010FFF72EFF49E0C548844208D191
:1014100001214020FFF733FF00214020FFF72FFF7D
:101420003DE0C048844208D101218020FFF727FF1A
:1014300000218020FFF723FF31E0BB48844208D120
:1014400001218015FFF71BFF0021A015FFF717FFF3
:1014500025E0B648844209D101210804FFF702FFC4
:1014600000214FF48030FFF7FDFE18E0B0488442C1
:1014700009D101214804FFF7F5FE00214FF40030A7
:10148000FFF7F0FE0BE0AB48844208D1012188044D
:10149000FFF7E8FE00214FF48020FFF7E3FE10BDC8
:1014A00000220288944B98420ED0994B98420BD060
:1014B000B0F1804F08D0914B984205D0904B9842A4
:1014C00002D0904B984204D14FF68F731A404B884C
:1014D0001A438D4B984207D08C4B984204D04FF65C
:1014E000FF431A40CB881A4302808B8883850B8880
:1014F0000385814B98420BD0854B984208D08B4B8B
:10150000984205D08A4B984202D08A4B984201D12A
:101510000B7A038601238382704770B50024002272
:101520000023058C4FF6FE7635400584028C8388B7
:10153000048B4FF68F752C40B51E2C400D882C4324
:10154000751E2A400D892A434D882A436A4DA842B8
:101550000BD06F4DA84208D0744DA84205D0744DF1
:10156000A84202D0734DA84213D14FF6F7752A4016
:101570004D892A434FF6FB752A408D882A434FF642
:10158000FF652B404FF6FF552B408D892B43CD89AE
:101590002B4383800483CD888586028470BD70B51B
:1015A000002400220023058C4FF6EF763540058499
:1015B000028C8388048B48F6FF752C404FF6FF455C
:1015C0002C400D884FF6FF7606EA05252C434FF692
:1015D000DF752A400D8906EA05152A434D8806EA7B
:1015E00005152A43444DA84202D0494DA8421DD1B9
:1015F0004FF67F752A404D894FF6FF7606EA0515AE
:101600002A434FF6BF752A408D8806EA05152A43FE
:101610004FF6FF352B404FF2FF752B408D8906EAC0
:1016200085052B43CD8906EA85052B4383800483FA
:10163000CD880587028470BD70B500240022002388
:10164000058C4FF6FF6635400584028C8388848BB9
:101650004FF68F752C404FF6FC752C400D882C43AF
:101660004FF6FF552A400D894FF6FF7606EA05250D
:101670002A434D8806EA05252A431F4DA84202D079
:10168000234DA8421DD14FF2FF752A404D894FF6D8
:10169000FF7606EA05252A434FF6FF352A408D8856
:1016A00006EA05252A434EF6FF752B404DF6FF75D9
:1016B0002B408D8906EA05152B43CD8906EA0515D1
:1016C0002B4383808483CD888587028470BD70B569
:1016D000002200230024058C4EF6FF763540058459
:1016E000038C8488828B48F6FF752A404FF6FF45AD
:1016F0002A400D8820E00000002C0140000400403A
:1017000000080040000C00400010004000140040A1
:1017100000340140004C01400050014000540140A1
:1017200000180040001C0040002000400040014024
:1017300000440140004801404FF6FF7606EA0525C7
:101740002A434DF6FF752B400D8906EA05352B43DC
:101750004D8806EA05352B43FA4DA84202D0FA4DD2
:10176000A84208D14BF6FF752C408D894FF6FF76C5
:1017700006EA85152C4384808283CD88A0F84050EA
:10178000038470BD828B4FF2FF331A408283828BB9
:101790004FF6FF7303EA01231A4382837047F0B5C3
:1017A0000C461546002200210026078C4EF6FF7CD1
:1017B00007EA0C070784828B018C4FF6FF7707EA54
:1017C000043640F6FF473A404FF6FF7707EA052711
:1017D0003A434FF6FF7707EA03373A43D94FB84207
:1017E0000ED0D94FB8420BD0B0F1804F08D0D74FB0
:1017F000B84205D0D64FB84202D0D64FB84206D133
:101800004DF6FF77394046F48057394305E047F6F7
:10181000FF57394044F48057394382830184F0BD37
:10182000828B4FF6F3731A408283828B0A43828342
:101830007047F0B50C461546002200210026078CA3
:101840004FF6FF6C07EA0C070784828B018C4FF67A
:10185000FF7707EA04264FF60C773A404FF6FF77FA
:1018600007EA03172F433A43B64FB8420ED0B64F9C
:10187000B8420BD0B0F1804F08D0B44FB84205D079
:10188000B34FB84202D0B34FB84206D14FF6FF571C
:10189000394046F48077394305E04FF2FF5739402D
:1018A00044F48077394382830184F0BD028B4FF288
:1018B000FF331A400283028B4FF6FF7303EA0123C2
:1018C0001A4302837047F0B50C46154600220021EA
:1018D0000026078C4FF6EF7C07EA0C070784028B83
:1018E000018C4FF6FF7707EA041640F6FF473A40AF
:1018F0004FF6FF7707EA03373A434FF6FF7707EAD9
:1019000005273A438F4FB8420ED08F4FB8420BD0C5
:10191000B0F1804F08D08D4FB84205D08C4FB842FF
:1019200002D08C4FB84206D14FF6DF77394046F0EF
:101930001007394305E04FF65F77394044F0100750
:10194000394302830184F0BD028B4FF6F3731A40D2
:101950000283028B0A4302837047F0B50C4615469A
:1019600000220021068C4FF6FE773E400684028B53
:10197000018C4FF60C7632407E1C06EA03162E438D
:101980003243704EB0420ED06F4EB0420BD0B0F129
:10199000804F08D06D4EB04205D06D4EB04202D09F
:1019A0006C4EB04206D14FF6FD76314044F0010650
:1019B000314305E04FF6F576314044F001063143FE
:1019C00002830184F0BD70B505460C465D48854232
:1019D0000ED05D4885420BD0B5F1804F08D05B48F2
:1019E000854205D05A48854202D05A48854200D1E6
:1019F00000E000BF208850B92389A288618828466A
:101A0000FFF7ABFFE1882846FFF79EFF25E020881F
:101A100004280AD12389A28861882846FFF753FF4A
:101A2000E1882846FFF742FF17E0208808280AD1FE
:101A30002389A28861882846FFF7FBFEE1882846B3
:101A4000FFF7EEFE09E02389A28861882846FFF7A8
:101A5000A6FEE1882846FFF795FE70BD2DE9F0410E
:101A600005460C4600260127608808B9022600E0DA
:101A70000026A088012801D1022700E00127208844
:101A8000A0B92389A28861882846FFF766FFE1880C
:101A90002846FFF759FF23893A4631462846FFF783
:101AA00012FFE1882846FFF701FF13E02389A2888F
:101AB00061882846FFF707FFE1882846FFF7F6FE12
:101AC00023893A4631462846FFF747FFE1882846F2
:101AD000FFF73AFFBDE8F0810A884B881A438B88EC
:101AE0001A43CB881A430B891A434B891A438B89B3
:101AF0001A43A0F8442070474FF6FF7181800021FF
:101B00000180C180418001727047002101804180C5
:101B10008180C180018141818181C1817047002123
:101B200001804180012181800021C18001817047B5
:101B30000021018041808180C180018141818181BA
:101B400070470000002C01400034014000040040B8
:101B500000080040000C004021B1028842F0010260
:101B6000028004E002884FF6FE731A40028070473C
:101B700031B1B0F8442042F40042A0F8442005E01E
:101B8000B0F84420C2F30E02A0F8442070471AB106
:101B900083890B43838102E083898B438381704770
:101BA0008182704741EA0203A0F8483070471AB1B9
:101BB00083890B43838102E083898B438381704750
:101BC00001894FF6F8721140018170470A460021E1
:101BD00001894FF68F73194011430181704730B569
:101BE00004460D4629462046FFF7F0FF208940F0C5
:101BF0000700208130BD2DE9F04104460D46164610
:101C00001F46602D06D13B46012231462046FFF794
:101C10005AFE05E03B46012231462046FFF79DFE75
:101C200029462046FFF7D2FF208940F00700208197
:101C3000BDE8F08130B50C4600210189C9B24FF6EC
:101C4000FF7505EA0325154325432943018130BD6E
:101C50002DE9F04105460E461746984600244346B6
:101C60003A4631462846FFF7E5FF2C894FF6F870D3
:101C7000044044F007044FF68F70044044F07004B1
:101C80002C81BDE8F081F0B504460D4616461F468E
:101C90003B46324629462046FFF7CCFF208940F4D8
:101CA00080402081F0BD0185828270470A46002174
:101CB00001884FF68F731940114301807047F0B5CA
:101CC0000C4615461E460021002200230189028B86
:101CD000038C4FF6F877394021434FF6FC473A40E2
:101CE00040F201173A434FF6DD773B404FF6FF775E
:101CF00007EA06172F433B43018102830384F0BDAB
:101D00000A460021018B4FF68F731940114301835E
:101D100070470A460021018B48F6FF7319404FF6C1
:101D2000FF7303EA02231943018370470A46002127
:101D3000818B4FF68F7319401143818370470A4698
:101D40000021818B48F6FF7319404FF6FF7303EAB9
:101D5000022319438183704721B1028842F0800237
:101D6000028004E002884FF67F731A4002807047B9
:101D700021B1828842F00402828004E082884FF61A
:101D8000FB731A408280704721B1828842F00802BA
:101D9000828004E082884FF6F7731A408280704791
:101DA00021B1828842F00102828004E082884FF6ED
:101DB000FE731A40828070470A460021018B4FF65D
:101DC000F77319401143018370470A460021018BC4
:101DD0004FF2FF7319404FF6FF7303EA02231943D2
:101DE000018370470A460021818B4FF6F773194033
:101DF0001143818370470A460021818B4FF2FF73A4
:101E000019404FF6FF7303EA022319438183704799
:101E10000A460021018B4FF6FB73194011430183E1
:101E200070470A460021018B4FF6FF3319404FF6E9
:101E3000FF7303EA02231943018370470A46002116
:101E4000818B4FF6FB7319401143818370470A461B
:101E50000021818B4FF6FF3319404FF6FF7303EAE1
:101E600002231943818370470A460021018B4FF6F4
:101E70007F7319401143018370470A460021018B8B
:101E8000C1F30E014FF6FF7303EA022319430183E6
:101E900070470A460021818B4FF67F73194011432A
:101EA000818370470A460021818BC1F30E014FF6F2
:101EB000FF7303EA02231943818370470A46002116
:101EC000018C4FF6FD7319401143018470470A4697
:101ED0000021018C4FF6F7731940114301847047BC
:101EE0000A460021018C4FF6DF7319404FF6FF734D
:101EF00003EA02131943018470470A460021018C4A
:101F00004FF67F7319404FF6FF7303EA021319432C
:101F1000018470470A460021018C4FF6FF53194097
:101F20004FF6FF7303EA02231943018470470A4600
:101F30000021018C4FF2FF7319404FF6FF7303EA43
:101F400002231943018470470A460021018C4DF693
:101F5000FF7319404FF6FF7303EA023319430184FC
:101F6000704730B5002301248C40A3B2048C9C43FD
:101F70000484048C02FA01F5ADB22C43048430BD14
:101F800030B5002304248C40A3B2048C9C43048409
:101F9000048C02FA01F5ADB22C43048430BD70B557
:101FA0000346002000241846183001258D40ACB2AD
:101FB0001D8CA5431D8409B1082909D100EB6100DE
:101FC000056825F0700505600568154305600EE09D
:101FD0000D1FC5F34E052844056825F4E04505604E
:101FE00005684FF6FF7606EA02263543056070BDA8
:101FF00021B1028842F00202028004E002884FF61A
:10200000FD731A400280704721B1028842F0040239
:10201000028004E002884FF6FB731A40028070478A
:1020200021B1828842F08002828004E082884FF6EB
:102030007F731A408280704702884FF6F7731A4008
:10204000028002880A430280704782884FF68F73AD
:102050001A40828082880A438280704702894FF644
:10206000F8731A40028102890A430281704702898B
:102070004FF67F731A40028102890A43028170473A
:1020800081847047818570478186704701877047DA
:1020900081877047A0F84010704702884FF6FF43D1
:1020A0001A40028002880A43028070470146888EE7
:1020B00070470146088F70470146888F7047014678
:1020C000B1F8400070470146888C70470146088D82
:1020D000704702460020138A0B400BB1012000E03C
:1020E00000207047CA430282704730B50246002084
:1020F00000230024158A05EA0103958905EA0104F5
:1021000013B10CB1012000E0002030BDCA430282AF
:102110007047000010B50446FB48844209D10121F4
:102120008803FFF79FF800214FF48040FFF79AF8EB
:1021300032E0F648844209D101214804FFF79FF8B4
:1021400000214FF40030FFF79AF825E0F048844270
:1021500009D101218804FFF792F800214FF4802073
:10216000FFF78DF818E0EB48844209D10121C8043B
:10217000FFF785F800214FF40020FFF780F80BE00F
:10218000E548844208D101210805FFF778F80021CD
:102190004FF48010FFF773F810BD2DE9F04786B0BB
:1021A00005460E460024A24600BFA1460027B0897E
:1021B00000B100BF2F462C8A4CF6FF700440F08817
:1021C00004432C82AC894EF6F3100440B088318968
:1021D0000843718908430443AC81AC8A4FF6FF4041
:1021E0000440B0890443AC8201A8FEF7B4FFC6489E
:1021F000874202D1DDF810A001E0DDF80CA0A8892B
:1022000000F4004040B10AEBCA0000EB0A1031684C
:102210004900B0FBF1F807E00AEBCA0000EB0A1036
:1022200031688900B0FBF1F86420B8FBF0F00401DC
:102230002009642101FB1089A88900F4004040B105
:10224000322000EBC900B0FBF1F000F007000443BE
:1022500008E0322000EB09106421B0FBF1F000F03F
:102260000F0004432C8106B0BDE8F0874FF41651EF
:10227000016000218180C18001810C214181002108
:102280008181704710B502460020108A4FF2FF038B
:1022900018400B884C8823438C882343CC882343E5
:1022A0001843108210BD0021018041808180C180CF
:1022B000704721B1828942F40052828104E0828910
:1022C0004DF6FF731A4082817047F0B50346002433
:1022D00000260025002040F66A17B94200D100BF51
:1022E0001846C1F3421401F01F06012707FA06F54C
:1022F000012C01D10C3004E0022C01D1103000E09F
:1023000014301AB107682F43076002E00768AF4333
:102310000760F0BD1AB1838A0B43838202E0838A8F
:102320008B4383827047028A4FF6F0731A40028211
:10233000028A0A430282704782894FF2FF731A4071
:10234000828182890A438281704721B1828942F069
:102350000202828104E082894FF6FD731A40828175
:102360007047028A4FF6DF731A400282028A0A43DC
:102370000282704721B1028A42F48042028204E064
:10238000028A4BF6FF731A4002827047C1F30802BB
:102390008280704701468888C0F3080070478189B1
:1023A00041F0010181817047028BD2B20283028B1E
:1023B00042EA012202837047028B02F47F420283C9
:1023C000028B0A430283704721B1828A42F02002C5
:1023D000828204E0828A4FF6DF731A40828270475D
:1023E00021B1828A42F01002828204E0828A4FF692
:1023F000EF731A408282704721B1828A42F008024C
:10240000828204E0828A4FF6F7731A408282704714
:1024100021B1828942F40042828103E08289C2F3C1
:102420000E028281704721B1828A42F40062828268
:1024300004E0828A4FF2FF731A4082827047828AD8
:102440004FF6FB731A408282828A0A438282704767
:1024500021B1828A42F00202828204E0828A4FF62F
:10246000FD731A408282704702460020B1F5007F5A
:1024700000D100BF13880B400BB1012000E0002009
:10248000704701F40072B2F5007F00D100BFCA436B
:102490000280704770B5024600240023002500200A
:1024A00040F66A16B14200D100BFC1F3421501F0F7
:1024B0001F03012606FA03F3012D02D1968933404A
:1024C00006E0022D02D1168A334001E0968A33409D
:1024D0000C12012606FA04F41688344013B10CB12C
:1024E000012000E0002070BD10B50022002340F65E
:1024F0006A14A14200D100BF0A1201249440A3B281
:10250000DC43048010BD000000380140004400405E
:1025100000480040004C00400050004010B56FF0F3
:102520000400FEF794F82E4800682E49B0FBF1F045
:102530002D4908700846007800EB4001C1EBC0103F
:102540004FF6FF7101EAC0002849088010BD01461E
:10255000254A12784A434FF0E0235A6100229A61DB
:102560001A46126942F001021A6100BF4FF0E022E0
:10257000106900F001021AB100F48032002AF5D08F
:102580004FF0E022126922F001024FF0E0231A61BD
:1025900000229A6170470146144A12884A434FF05C
:1025A000E0235A6100229A611A46126942F0010240
:1025B0001A6100BF4FF0E022106900F001021AB169
:1025C00000F48032002AF5D04FF0E022126922F0A8
:1025D00001024FF0E0231A6100229A617047000067
:1025E0000000002000127A00B0000020B20000209D
:1025F000A34A0A400243A34B1A60704701460723CF
:1026000023EA010212029F4B1B1D18684FF6FF03BD
:1026100018409D4B184310439A4B1B1D1860704780
:102620002DE9F0410746884614461D462846FFF727
:10263000E5FFC5F1040007FA00F60F20284100EA83
:102640000800064306F00F06E21704EBD2625211AF
:10265000920002F1E022D2F800212146E31704EBB8
:10266000D3635B11A4EB431C012303FA0CF31A435D
:102670002046E31704EBD3635B119B0003F1E023D7
:10268000C3F800218148005D40EA06107F490855E3
:10269000BDE8F08170B504460B46CE1701EB967687
:1026A000C6F38700CE1701EB9676B610A1EB86062F
:1026B000B606350E764B9B6943F00103744EB36149
:1026C0004FEAB63353F820300F26AE40B343714E75
:1026D00046F82030334653F8203004FA05F61E43FE
:1026E0006C4B43F820606C4B1B6801268E403343D3
:1026F000694E336002F0010343B1674B0C331B6832
:1027000001268E403343644E0C36336002F00203E0
:1027100043B1614B08331E6801238B401E435E4B5F
:1027200008331E6070BD00B5002059490861C860BB
:102730001420486100208861C8610846006840F0A4
:102740000100086008464068544908405049486004
:1027500008460068524908404D490860084600682C
:1027600020F4802008600846406820F4FE0048609D
:102770000020886000214FF00060FFF739FF00BDA6
:1027800010B540480830006840F004003D49083169
:1027900008603F48C06940F080503D49C8614148E9
:1027A000406840F480703F4948600846006840F047
:1027B000040008600846006840F002000860FDF769
:1027C00011FD10BD3048001D2E49091D08607047DD
:1027D000014649062E4A926942F001022C4B9A6149
:1027E0002C4A083A526822F0E0622A4B083B5A60B1
:1027F0001A4652680A435A60704730B504460025AD
:10280000FFF791FF2248006840F4803020490860BB
:1028100000BF1F480068400C0028FAD04FF48060C9
:102820001B494860A01EC4B20846406840EA844084
:1028300048600846406840F4803048601A480068A4
:1028400040F03200184908601148006840F080707C
:102850000F49086000BF0E480068400E0028FAD0FB
:102860000B48406840F002000949486005E008480C
:102870004068C0F3870505F00305022DF7D130BD90
:1028800080FFFF1F08ED00E00000FA0500E400E013
:102890000010024008000140000401400000FFF861
:1028A000FFFFF6FE0070004000200240014608468F
:1028B0000BE00278274B1A8000BF264A121F1288AD
:1028C00002F04002002AF8D0401C0278002AF0D121
:1028D000704710B586B00446012144F20400FEF7AB
:1028E000A7FC4FF40070ADF8140003208DF816001B
:1028F00018208DF8170005A91748FEF7DDF94FF4E9
:102900008060ADF8140004208DF8170005A9124866
:10291000FEF7D2F901940020ADF80800ADF80A00E6
:10292000ADF80C00ADF810000C20ADF80E0001A9B8
:102930000848001FFFF731FC002240F225510548EE
:10294000001FFFF7C2FC01210248001FFFF7B1FC86
:1029500006B010BD043801400008014008B501214F
:102960000420FEF765FC4FF48050ADF80000102005
:102970008DF8030003208DF8020069460C48FEF72D
:102980009BF908BD18B900210A4A11600FE00A49F5
:102990000968491C084A1160814208D10549096843
:1029A000C943064AC2F8B0110021034A11607047BA
:1029B00000080140B0012142B40000200000214283
:1029C00008B501210420FEF733FC4FF40040ADF8B8
:1029D000000048208DF8030069464B48FEF76CF96B
:1029E00008BD01464948006828B949480088401C8C
:1029F000474A108002E00020454A108043480068A2
:102A000028B94448007810B90120424A1070424861
:102A10000078B0B93F480078012807D13F480078D6
:102A2000401C3E4A107001203B4A10703B48007821
:102A3000022806D10020394A1070394A108002203D
:102A4000704732480068012804D10020314A1070D4
:102A5000314A10703148007801281CD13048008874
:102A6000401C2F4A10801046008888420ADD284802
:102A70000088884206DA0020284A1070284A108010
:102A80000120DDE722480088884204DD0020234A37
:102A90001070234A10800020D2E72248007838B115
:102AA0001A48006820B900201E49087001207047AC
:102AB00016480068012801D11A4908700020F6E77D
:102AC0001948008840B91148006828B9174800889B
:102AD000401C1649088002E0002014490880134871
:102AE0000088C82807DD01200F49088000200F4911
:102AF0000880012070470C480088012802D100207E
:102B0000094908800020F5E7000801403C01214206
:102B1000BE000020B8000020B9000020BA0000204C
:102B2000BC000020C0000020C4000020C200002023
:102B300000B587B001214FF40170FEF779FB4FF427
:102B40000040FEF7D9FA1020ADF8040000208DF8FF
:102B5000070001A93848FEF7AFF83848FDF796FDA1
:102B6000002002908DF80C008DF80D004FF46020CD
:102B700004900020059001208DF8180002A92F482C
:102B8000FDF7ABFD01212D48FDF7D3FD2B48FDF7E7
:102B9000F2FD00BF2948FDF7F3FD0028FAD12748D0
:102BA000FDF7F8FD00BF2548FDF7F9FD0028FAD133
:102BB00007B000BD10B504460723012221461F4877
:102BC000FDF723FE01211D48FDF7F3FD00BF0221A3
:102BD0001A48FDF75FFF0028F9D01848FDF77CFE82
:102BE00010BD2DE9F04F87B00420FFF7E3FF0190FF
:102BF00007F036FA80464FF06632114B07F044FA80
:102C0000064600220F4B07F03FFA044600220E4B07
:102C100007F03AFA00220D4BCDE9020107F082F8E5
:102C200000220B4BCDE9040107F07CF8824607F047
:102C3000D1F907B0BDE8F08F000801400024014041
:102C400066660A4000002740000059400000F83F37
:102C50000000B04030B585B005460C460121022089
:102C6000FEF7F3FA01210820FEF7E2FA0120ADF8A1
:102C7000100028208DF8130004A96848FEF71CF8FE
:102C80000220ADF8100010208DF8130002208DF8FE
:102C9000120004A96148FEF70FF8ADF80850ADF82E
:102CA00004400020ADF80A00ADF8060001A95C4818
:102CB000FEF7F6FB08205B490880002048800120D1
:102CC00088800020C88008815548FEF77CFE1D20C2
:102CD0008DF8000002208DF8010000208DF8020020
:102CE00001208DF803006846FDF767FC01220921E9
:102CF0004B48FEF74CFF01214948FEF72DFF05B078
:102D000030BD10B50120484908600F20FFF71FFCB7
:102D100000204649C1F884014548007800F0800051
:102D2000E8B14348007800F03F0042490860084697
:102D3000008800040860084600683F490988084484
:102D40003C49086008460068AA2148434FF47A715C
:102D5000B0FBF1F03749086000203549088010BD0C
:102D60002F49103108883249097801F08001002983
:102D70004ED100F00101D1B12D49097801F0400197
:102D8000A9B12B49097801F03F013F290AD128490F
:102D9000098841F08001264A11804FF6FF71264ACA
:102DA000118004E022490988491C214A118000F061
:102DB000080169B31E49097801F0400199B11C4925
:102DC000098841F080011A4A118015493C3109886F
:102DD000194A118012492031098821F40071104AE2
:102DE0002032118014E00021114A1180124A118012
:102DF0000F49098841F040010D4A11800021084A1D
:102E000024321180111F098841F40071121F1180B2
:102E10000021034A1032118070470000000C01406D
:102E200000040040500200208481214200802142A1
:102E3000C600002090000020C800002008B5012135
:102E40000820FEF7F5F94FF47040ADF800001020AF
:102E50008DF8030003208DF8020069462A48FDF72B
:102E60002BFF08BD30B589B005460C46FFF7E6FFDD
:102E70000121C802FEF7DCF901210420FEF7D8F990
:102E80004FF41060ADF8200018208DF823000320C7
:102E90008DF8220008A91D48FDF70EFFADF8185067
:102EA000ADF814400020ADF81A00ADF8160005A9E1
:102EB0001748FEF7F5FA6020ADF804000120ADF8E0
:102EC00006000020ADF80A00ADF80C0001A910487A
:102ED000FEF723FB01A90E48FEF7F9FB01210C4880
:102EE000FEF746FE08210A48FEF766FF082108485B
:102EF000FEF781FF01210648FEF72EFF012104485D
:102F0000FEF72AFE09B030BD000C01400008014068
:102F1000002C014000B587B001210846FEF795F965
:102F200001210420FEF784F90320ADF800000420FD
:102F30008DF8030069466148FDF7BEFE04A8FEF760
:102F4000DBFD0020ADF810004FF6FF70ADF8140067
:102F50000020ADF81600ADF8120004A94FF0804033
:102F6000FEF79EFA00231A4603214FF08040FEF739
:102F7000A6FE01A8FEF7D3FD0A20ADF80C0001A9BA
:102F80004007FEF720FD01218807FFF7ABF801227B
:102F900011469007FEF7FBFD00214FF08040FFF740
:102FA0006FF801218807FEF7D7FD07B000BD00B517
:102FB00087B001210420FEF748F901210820FEF71F
:102FC00037F9C020ADF8000004208DF803006946F1
:102FD0003B48FDF771FE04A8FEF78EFD0020ADF81A
:102FE00010004FF6FF70ADF814000020ADF8160089
:102FF000ADF8120004A93348FEF752FA00231A462E
:1030000003213048FEF75BFE01A8FEF788FD0A2089
:10301000ADF80C0001A92B48FEF7D5FC0121294889
:10302000FFF760F8012211462648FEF7B0FD0021A7
:103030002448FFF725F801212248FEF78DFD07B04F
:1030400000BD0146022904D003290BD0042919D15F
:103050000FE04FF08042928C10B200224FF080437C
:103060009A8411E0184A128810B20022164B1A8076
:103070000AE0144A2432128810B20022114B243381
:103080001A8001E0002000BF00BF70470D481030DB
:1030900000880C481030008820F0010009491031E8
:1030A000088070474FF08040008A4FF08040008ACF
:1030B00020F001004FF08041088270470008014075
:1030C000000C0140000800402404004008B5012124
:1030D0000820FEF7ADF84FF44070ADF80000102066
:1030E0008DF8030003208DF802006946F748FDF7CC
:1030F000E3FD08BD10B5F548001D006820F0F000A4
:10310000F249091D08600846006840F03000086078
:103110000120EF490860EF48D0F8240108B90020E9
:1031200010BD0120EA49091F0860FFF710FA0020CE
:10313000E849C1F8A401E6488038006808B10020D9
:10314000EEE70120FFF703FA0020E149091F0860BC
:103150000120E5E710B5DD48001D006820F0F00013
:10316000DA49091D08600846006840F03000086030
:103170000020D749091F0860D649C1F8A4010120E1
:10318000FFF7E5F90120D249091F0860D149C1F8CC
:10319000A401FFF7DCF910BD10B50024CB48001DD9
:1031A000006820F0F000C949091D08600846006861
:1031B00040F0800008600120C5490860FFF7C7F9AA
:1031C0000120C449C1F8A001FFF7C1F90AE0601C61
:1031D000C4B2322C03DDFFF7BDFF002010BD01207B
:1031E000FFF7B5F9BA48803800680028EFD1B84930
:1031F000091F08600120F1E710B50020B449091F3C
:103200000860B248001D006820F0F000AF49091DB9
:1032100008600846006840F0300008600020AD49B2
:10322000C1F8A4010120FFF792F90120A849091F64
:103230000860FFF78CF90020A649C1F8A00110BD75
:1032400010B50020A249091F0860A048001D0068B1
:1032500020F0F0009D49091D08600846006840F014
:103260003000086001209B49C1F8A401FFF76FF905
:1032700001209749091F0860FFF769F90020954967
:10328000C1F8A00110BD70B504469048001D00684B
:1032900020F0F0008D49091D08600846006840F0E4
:1032A0003000086000208A49091F0860002516E0E8
:1032B000E009874908606006040E0120FFF747F91E
:1032C00001208449C1F8A001FFF741F9002080499D
:1032D000091F08600120FFF73AF9681CC5B2082DE4
:1032E000E6DB70BD2DE9F04105460E4617469846CF
:1032F000FFF700FF10B90120BDE8F0816906080E54
:10330000FFF7C1FFFFF748FF18B9FFF723FF0120C0
:10331000F2E73046FFF7B7FFFFF73EFF00240BE070
:1033200018F80400FFF7AFFFFFF736FF18B9FFF7F3
:1033300011FF0020E0E7641CBC42F1DBFFF70AFF4D
:103340000020D9E770B5054600246048001D0068DC
:1033500020F0F0005D49091D08600846006840F053
:1033600080000860002617E000205949091F086006
:103370000220FFF7ECF801205649C1F8A0016006D1
:10338000040E53488038006808B1601CC4B20220A3
:10339000FFF7DDF8701CC6B2082EE5DB15B1FFF7AC
:1033A0002BFF01E0FFF74CFF204670BD2DE9F041F7
:1033B00006460F4614461D46FFF79CFE10B9012035
:1033C000BDE8F0817106080EFFF75DFFFFF7E4FE30
:1033D00018B9FFF7BFFE0120F2E73846FFF753FFA9
:1033E000FFF7DAFEFFF786FE012101EB4601C8B2C6
:1033F000FFF749FFFFF7D0FE0DE0012C04D10020BC
:10340000FFF7A0FF287003E00120FFF79BFF287063
:103410006D1C601EC4B2002CEFD1FFF79BFE002094
:10342000CEE770B505460E460024FFF763FE28463A
:10343000FFF729FF641CFFF7AFFE3046FFF723FFBD
:10344000641CFFF7A9FEFFF755FE691CC8B2FFF721
:103450001AFF641CFFF7A0FE0020FFF773FF04466D
:10346000FFF778FE204670BD2DE9F04107468846FB
:1034700015461E460024FFF73DFE3846FFF703FFC2
:10348000FFF78AFE4046FFF7FEFEFFF785FEFFF7D7
:1034900031FE791CC8B2FFF7F6FEFFF77DFE00BFD4
:1034A0000DE0681EA04204D00120FFF74BFF30550D
:1034B00003E00020FFF746FF3055601CC4B2AC4269
:1034C000EFDBFFF747FE2046BDE8F081000C01402E
:1034D000A4812142008021422DE9F04180460D4621
:1034E00016461F460024FFF705FE4046FFF7CBFEB9
:1034F000FFF752FE2846FFF7C6FEFFF74DFE00BF5E
:1035000006E0385DFFF7BFFEFFF746FE601CC4B261
:10351000B442F6DBFFF71EFE0120BDE8F08170B576
:1035200005460E46144631462846FFF77AFF2070BE
:10353000012070BD37B504460D4602AB0122294675
:103540002046FFF7C9FF3EBD2DE9F84307468846F0
:1035500014461D46089E6A4641463846FFF7DFFF7F
:1035600028B3601CFF2101FA00F0C4F108012944CE
:10357000491EFF220A41104300F0FF09C5F108006F
:1035800006FA00F0C6B2C4F1070006419DF800003B
:1035900000EA090000909DF80000304300909DF87B
:1035A000002041463846FFF7C5FFBDE8F8830020FC
:1035B000FBE7F8B506460F4614461D466A463946EF
:1035C0003046FFF7ACFF2DB10120A0409DF8001060
:1035D000084305E00120A0409DF8001021EA00000A
:1035E000C0B200909DF8002039463046FFF7A2FF98
:1035F000F8BD000010B586B0044601210820FDF793
:1036000017FE01218804FDF720FE4FF48060ADF81D
:10361000140003208DF8160018208DF8170005A956
:10362000F748FDF749FB4FF40060ADF814000420A3
:103630008DF8170005A9F248FDF73EFB27208DF80D
:10364000000000208DF8010001208DF802008DF8A7
:1036500003006846FCF7B1FF01940020ADF80800B4
:10366000ADF80A00ADF80C00ADF810000C20ADF874
:103670000E0001A9E348FEF790FD012240F225511A
:10368000E048FEF722FE0121DE48FEF712FE06B0FA
:1036900010BD014600BF704700BFDA4A128802F031
:1036A0004002002AF9D0C2B2D64B1B1D1A807047C7
:1036B0002DE9F04188B040F22551D248FEF7EAFEEC
:1036C000002872D000200790CE48FEF763FEC4B2F7
:1036D000CD480078002869D0412C67DB5A2C65DC86
:1036E0002046462C4BD008DCA0F14100052877D2BB
:1036F000DFE800F0101C26333C00582862D004DCC0
:10370000472845D048286BD151E059286AD05A281B
:103710007FD175E0BD480068BD490860BD480068BC
:10372000BD4908600020BD49087073E0B7480068D3
:10373000B74908600020B8490860B849087069E0D6
:10374000B2480068B2490860B24800684042B249D5
:1037500008600020B14908705CE00020AC490860B6
:10376000AD4908600120AD49087053E00020A84928
:103770000860A94908600120A84908704AE00020B3
:10378000A3490860A44908600120A449087041E0E9
:103790009E48006840429E4908609E4800689E49D5
:1037A000086000209D49087034E089E133E0002082
:1037B0009749086097480068974908600020974932
:1037C000087027E0914800680A30904908609148E5
:1037D00000680A308F49086001209049087019E09C
:1037E00017E0FFE7894800680A3888490860894877
:1037F00000680A388749086001208849087009E094
:1038000000208349086084490860012083490870CA
:1038100000E000BF53E182480078392802D100203F
:103820007F4908707B2C04D10020774908707C49BF
:1038300008707B4801780078401C794A10707948FC
:1038400044547D2CE6D101206F49087000211046B8
:1038500002780078401C724B18707248815440788E
:10386000512807D16F48C078572803D101206E49ED
:10387000087024E16B484078512807D16948C07826
:10388000502803D101206949087018E16548407843
:10389000232864D16648811E021F831FCDE90332AD
:1038A000CDE90510891F0A38821E031FCDE90020CB
:1038B0000291821F5FA15B4805F03CF85C4910391A
:1038C000088806F0CDFB07460022624B06F02AFA74
:1038D000054606F045F960490860554910394888A1
:1038E00006F0BEFB074600225A4B06F01BFA0546BF
:1038F00006F036F9594908604D491039888806F0B4
:10390000AFFB07460022534B06F00CFA054606F0C3
:1039100027F95349086046491039C88806F0A0FBCA
:10392000074600224F4B06F0FDF9054606F052FB14
:10393000364908603E491039088906F091FB074670
:103940000022484B06F0EEF9054606F043FB3149EC
:10395000086037481038007B43490870AFE03148B1
:10396000407830284ADB2F484078382846DC2D48FC
:10397000407830382E49103901EB400307AA3BA1AB
:10398000284804F0D7FF9DF81C003038072836D2AD
:10399000DFE800F0041424707F938E00244910396E
:1039A000088806F05DFB074600222A4B06F0BAF9AC
:1039B000054606F0D5F8284908607FE01C49103913
:1039C000488806F04DFB07460022224B06F0AAF974
:1039D000054606F0C5F8214908606FE01449103922
:1039E000888806F03DFB074600221A4B06F09AF93C
:1039F000054606F0B5F81A4908605FE05FE05CE054
:103A0000000C014000480040D100002020000020B0
:103A100018000020240000201C0000203800002096
:103A2000D00000205A0200203C0000203D00002071
:103A30004C0200207B2325753A25753A25753A25D9
:103A4000753A25753A25753A25753A25753A2575DD
:103A50007D00000000408F40280000202C00002046
:103A600030000020000059403A0000207B25633AD6
:103A700025757D001449C88806F0F2FA0746002231
:103A8000124B06F04FF9054606F0A4FA10490860FB
:103A900014E00D49088906F0E3FA074600220B4BB3
:103AA00006F040F9054606F095FA0A49086005E077
:103AB0000548007B0849087000E000BF00BF00BF58
:103AC00008B0BDE8F08100003C0200200000594031
:103AD00020000020240000203A0000201FB5012112
:103AE0000846FDF7A5FB01210820FDF7A1FB2020DA
:103AF000ADF80C0048208DF80F0003A91148FDF720
:103B0000DBF805210120FDF7EDF9202001900020D0
:103B10008DF808000C208DF8090001208DF80A00AE
:103B200001A8FCF7E9FF17208DF8000002208DF8AE
:103B3000010001208DF802008DF803006846FCF7B3
:103B40003CFD1FBD000C0140ED48EE494860EE48C9
:103B500048607047EB48006940F08000E94908611F
:103B60007047E848C16801F0010008B101207047C2
:103B700001F0040008B10220F9E701F0100008B1DB
:103B80000320F4E70020F2E770B5044600BFFFF71A
:103B9000E8FF0546012D00D006E00120FEF7D7FC26
:103BA000601E84B2002CF2D100BF04B9FF25284664
:103BB00070BD70B50546002445F6FF70FFF7E4FFC1
:103BC0000446C4B9CF48006940F00200CD490861FD
:103BD00008464561006940F04000086145F6FF7005
:103BE000FFF7D2FF0446012C05D0C648006920F03B
:103BF0000200C4490861204670BD70B505460E46F6
:103C0000FF20FFF7C1FF044694B9BE48006940F0A9
:103C10000100BC4908612E80FF20FFF7B5FF044674
:103C2000012C05D0B748006920F00100B5490861B2
:103C3000204670BD0146088870472DE9F0410546D1
:103C40000E461746002407E036F814102846FFF702
:103C5000D4FFAD1C601C84B2BC42F5DBBDE8F08132
:103C600030B503460C461546002207E01846FFF71C
:103C7000E1FF24F812009B1C501C82B2AA42F5DB23
:103C800030BD2DE9F05F80468A461746B8F1006FD7
:103C900002D39E48804501D3BDE8F09FFFF754FF53
:103CA000A8F1006B4FEA9B25CBF34809C9F50074D6
:103CB000A74200DC3C464EE04FF0006101EB85205E
:103CC0008A149349FFF7CCFF00260BE009EB0600AE
:103CD0008F4931F810004FF6FF71884200D003E0A1
:103CE000701C86B2A642F1DB00BFA6421BDA4FF081
:103CF000006101EB8520FFF75CFF002608E03AF841
:103D0000160006EB0901824A22F81100701C86B2E7
:103D1000A642F4DB4FF0006101EB85208A147C4958
:103D2000FFF78BFF04E0224651464046FFF785FF30
:103D3000A74200D110E06D1C4FF000090AEB440AC5
:103D400008EB4408381B87B2B7F5007F02DD4FF45B
:103D5000007400E03C46AFE700BFFFF7FBFE00BF8A
:103D60009AE713B50446012201A92046FFF789FF0F
:103D70001CBD2DE9F0410A2266496748FFF770FF34
:103D8000644800884FF6FF71884227D16148408817
:103D9000884223D15F48808888421FD15D48C0880F
:103DA00088421BD15B480089884217D15948408915
:103DB000884213D159485A4908605A485A490860FC
:103DC00000205A4908603220594908605949086062
:103DD000002059490860594908704DE04D4908884C
:103DE00006F03EF906460022554B05F09BFF0446BF
:103DF00005F0B6FE4A4908604649488806F030F9A1
:103E0000064600224E4B05F08DFF044605F0A8FE45
:103E1000454908603F49888806F022F90646002295
:103E2000474B05F07FFF044605F09AFE3F490860C6
:103E30003849C88806F014F906460022414B05F0BF
:103E400071FF044606F0C6F839490860314908890F
:103E500006F006F9064600223A4B05F063FF0446D9
:103E600006F0B8F8334908602A48408932490860AA
:103E70002848007B31490870BDE8F08110B532490F
:103E80002748006806F006FE044606F083FD2F4929
:103E900008802D492448006806F0FCFD044606F021
:103EA00079FD2A49488028492048006806F0F2FD3B
:103EB000044606F06FFD254988801D48006800EB28
:103EC000C00101EB00104FF6FF7101EA80001F49AD
:103ED000C8801848006800EBC00101EB00104FF6E5
:103EE000FF7101EA80001949088113480088488160
:103EF0001248007888810A220748FFF7C2FE10BDE9
:103F00002301674500200240AB89EFCD0000010886
:103F1000940200202802002000E000080000704108
:103F200028000020000040412C000020300000202C
:103F30002000002024000020340000203A0000204F
:103F400000408F400000594000007A443C020020AD
:103F500010B586B0044601210420FDF769F901215E
:103F60004804FDF772F90420ADF8140003208DF821
:103F7000160018208DF8170005A9AF48FCF79CFE25
:103F80000820ADF8140004208DF8170005A9AA48F0
:103F9000FCF792FE26208DF8000000208DF801002D
:103FA0008DF8020001208DF803006846FCF705FB40
:103FB00001940020ADF80800ADF80A00ADF80C003F
:103FC000ADF810000C20ADF80E0001A99B48FEF7DB
:103FD000E4F8012240F225519848FEF776F90121D4
:103FE0009648FEF766F906B010BD2DE9F04104468B
:103FF0000D46002611277E20914908703E2048700A
:104000002B4622468FA18E48801C04F07FFB0EE0D9
:104010003046711CCEB28A49085C8849091D088067
:1040200000BF8648008800F040000028F9D0BE425A
:10403000EEDBBDE8F08170B5044600250A267E203F
:104040007F4908703E204870224682A17C48801C2F
:1040500004F05CFB0EE02846691CCDB27849085C90
:104060007649091D088000BF7448008800F04000B0
:104070000028F9D0B542EEDB70BD10B500202C2130
:104080007E226F4B1A703E225A7049229A70DA1CB7
:10409000724B1C6814605C6854609B689360704B42
:1040A0001C68D4605C6814619B685361D21E6D4BC0
:1040B0001B68C2F81B306C4B1B68C2F81F306B4B7F
:1040C0001B68C2F823306A4B1B68C2F827300A22EB
:1040D0005B4B83F82B200EE00246431CD8B2584BB2
:1040E0009A5C564B1B1D1A8000BF544A128802F07E
:1040F0004002002AF9D08842EEDB10BD00204F4973
:10410000098801F0200100297ED04C49091D098849
:10411000C8B2242802D10021564A117055490978A5
:10412000112902D10021534A117052490A780978A5
:10413000491C504B1970504988540A287BD1097882
:10414000242978D14C498978303942F21072514390
:10415000494AD278303A02EB4203C3EBC21201EB78
:10416000C20245490979303901EBC10303EB011162
:1041700002EB810240494979303901EB810102EBC0
:1041800041023D498979303911443C4A11603A492C
:1041900049782D2903D111460968494211603649F1
:1041A000497A303942F210725143334A927A303AA6
:1041B00002EB4203C3EBC21201EBC2022E49C97AE1
:1041C000303901EBC10303EB011102EB81022A49F3
:1041D000097B303901EB810102EB41022649497B21
:1041E00030391144264A11602349097A2D2903D117
:1041F00011460968494211602049096811B12049F6
:10420000096869B9012100E015E01E4A11701B49D7
:1042100009681D4A11601A4909681C4A11600AE0C0
:1042200016490968184A116015490968174A11604A
:104230000021144A117070470008014000440040FA
:10424000E500002045252B3036642C252B303664C4
:104250000A00000042252B3036640A0010020020BC
:104260001C02002054000020580000205C000020A8
:104270006000002025010020D4000020280100203B
:104280002C01002038000020180000201C00002015
:1042900010B54FF4967141F6F420FD4A126843427E
:1042A0009A4202DA4242FA4B1A60F94A1268824292
:1042B00001DDF74A1060F74A126843429A4202DA77
:1042C0004242F44B1A60F34A1268824201DDF14A1D
:1042D0001060EF4A1268002A07DA0122EE4B1A60DA
:1042E0000022EE4BC3F8BC2106E00022EA4B1A6024
:1042F0000122EA4BC3F8BC21E54B1A68002A01DB16
:10430000134600E053420B44E54C2380E14A126817
:10431000002A08DA0122E04B1B1F1A600022DF4B43
:10432000C3F8B02107E00022DB4B1B1F1A600122FB
:10433000DA4BC3F8B021D74B1A68002A01DB1346C9
:1043400000E053420B44D64C0C34238010BDD549B9
:10435000096840F25642914202DBD349097869B1BB
:1043600001200021CC4A1160CC4AC2F8BC11CA4AD3
:10437000121F1160C94AC2F8B01100E00020704756
:104380002DE9FC5F00260027C8480468C848056876
:10439000211E01DB0A4600E04A42C64B1B789A42C6
:1043A0000BDC281E01DB024600E04242C14B1B78B9
:1043B0009A4202DC0120C0490880BE48007884424D
:1043C00005DDBC4804780A20BB4908800AE0B948EA
:1043D00000784042844205DAB648007844420A2018
:1043E000B5490880B3480078854205DDB1480578B5
:1043F0000A20B14908800AE0AE4800784042854270
:1044000005DAAC48007845420A20AB490880AB4841
:104410000068261AAA4800682F1AA348007848B1F5
:1044200000209B4908609B490860A6490860A6498E
:10443000086063E0A34800683044A2490860A248CD
:1044400000683844A0490860A0490968701A06F05D
:10445000C1FA83469E480168584606F01BFB814618
:104460009848006806F0B6FA00909A4801680098EB
:1044700006F010FB8346304606F0ACFA00909648F2
:104480000168009806F006FB5946019006F002F913
:104490008246494606F0FEF8804606F05FFA7C49FF
:1044A00008608E490968781A06F094FA83468848AD
:1044B0000168584606F0EEFA81468348006806F027
:1044C00089FA009083480168009806F0E3FA834671
:1044D000384606F07FFA00907F480168009806F0A1
:1044E000D9FA5946019006F0D5F88246494606F0B9
:1044F000D1F8804606F032FA6649086073480660D3
:10450000764807606F4800687549884202DD0846B2
:104510006C4908606B48006871494942884202DA78
:10452000084668490860684800686D49884202DDAD
:1045300008466549086064480068694949428842FC
:1045400002DA084660490860BDE8FC9F10B5524891
:10455000A4380068002843D12020624908606248DE
:104560000078401C604908700220FEF76AFD5F4930
:10457000096808445D4908600420FEF762FD404276
:104580005B49096808445A4908605A480078C821BC
:1045900091FBF0F054490978884218D153480068DB
:1045A00046490860524800684549086000204F4964
:1045B00008604F4908604C490870FFF7E1FEFFF7BB
:1045C000C6FE08B9FFF764FE01204B4908703A485F
:1045D0000088C82191FBF0F084B22046FEF7D2F9A2
:1045E000002010BD2DE9FF5F002600272F4804683A
:1045F0002F480568211E01DB0A4600E04A422D4B88
:104600001B789A420BDC281E01DB024600E0424286
:10461000284B1B789A4202DC012027490880254854
:104620000078844205DD234804780A202249088066
:104630000AE0204800784042844205DA1D480078AC
:1046400044420A201C4908801A480078854205DD4A
:10465000184805780A20184908800AE015480078AB
:104660004042854205DA1348007845420A20124943
:10467000088012480068261A114800682F1A0A4854
:104680000078D8B300200249086002490860AEE013
:104690007400002078000020B8812142008021426F
:1046A000342C014034000020380000201800002085
:1046B0001C00002050000020140000206C0000208E
:1046C000700000203C010020400100204401002037
:1046D000300000202C00002028000020480100208D
:1046E000407E050014040140300100203401002008
:1046F000380100203101002039000020FFE7CF49B8
:104700000968022202FB1161CD4A1268881806F07E
:1047100061F98346CB480168584606F0BBF98246EA
:10472000304606F057F90090C7480168009806F037
:10473000B1F9C24901900968701A06F04BF900906E
:10474000C2480168009806F0A5F98346019905F072
:10475000A1FF5146029005F09DFF8146BC480068CC
:1047600006F038F94946039005F094FF804606F0BC
:10477000F5F8B7490860B7490968022202FB1171D0
:10478000B54A1268881806F025F98346AD480168D5
:10479000584606F07FF98246384606F01BF900902D
:1047A000A9480168009806F075F98346A949096887
:1047B000781A06F00FF90090A4480168009806F0F6
:1047C00069F95946019005F065FF5146029005F0E0
:1047D00061FF8146A148006806F0FCF84946039055
:1047E00005F058FF804606F0B9F89C4908609348E8
:1047F00000689349086097480068974908608F48A7
:10480000066094480760BDE8FF9F2DE9F04F89B02E
:104810008146B9F1010F1BD103F06EFC904800688E
:10482000904908609049B1F9020006F0D3F88F4929
:1048300008608D49B1F9040006F0CCF88C49086095
:104840008C49B1F9040006F0C5F88B490860B8E05E
:104850004621D020FEF7E5FD80464521D020FEF719
:10486000E0FD08EB0027384606F0B4F8044648217E
:10487000D020FEF7D6FD80464721D020FEF7D1FD9F
:1048800008EB0027384606F0A5F806463C21D02064
:10489000FEF7C7FD80463B21D020FEF7C2FD08EBA6
:1048A0000027384606F096F883464021D020FEF7D0
:1048B000B8FD80463F21D020FEF7B3FD08EB00276E
:1048C000384606F087F805464FF08E41204606F040
:1048D000ADF905D24FF08F41204606F0E3F90446CA
:1048E0004FF08E41304606F0A1F905D24FF08F41CE
:1048F000304606F0D7F906464FF08E41584606F08E
:1049000095F905D24FF08F41584606F0CBF9834612
:104910004FF08E41284606F089F905D24FF08F41BD
:10492000284606F0BFF9054684F000404F4908606C
:10493000284605F083FECDE90001584605F07EFECD
:104940000746DDE9002305F00FF800224B4BCDE9C7
:10495000020105F099FB4A4A4A4BCDE9040105F0F2
:10496000E1F9CDE9060105F0FBF88246204605F0A5
:1049700065FE4FF06632444BCDE9060105F0D2F9F1
:10498000074605F0EDF8044640480078022806D1B5
:1049900084F000473946504602F0CCFF09E03B481E
:1049A0000078032805D184F000473946504603F0CB
:1049B000D8F8374800682B4908602D4806602E4813
:1049C000056009B0BDE8F08F10B53248008801B22B
:1049D0003148008800B2FFF708FB2F4800682F49D4
:1049E00008602C4800682E4908602E48006805F0D1
:1049F000B5FF2D4908602D480078401C2B490870F0
:104A0000FEF7EFF82A490968084429490860274851
:104A10000078C82810D1084600682449097890FB1E
:104A2000F1F02449086008460068FFF704FB002005
:104A30001E4908701E49086010BD00005401002086
:104A40004C010020300000202C0000202800002015
:104A50007400002058010020500100207800002040
:104A6000F401002080000020E401002084000020E8
:104A700088000020EA0100209400002000806640A9
:104A8000F1D4C853FB210940666630406400002021
:104A900094010020700000206C00002040000020E5
:104AA00044000020FC0100204C0000205C0100209C
:104AB000600100203400002038B50446FB4890F81F
:104AC0002400C0B114B10220009001E00020009049
:104AD000F64A1268D17BF54A526810786B4601227B
:104AE000FEF700FC10B14FF0FF3038BD9DF800100C
:104AF000EE48417423E0ED48807A10B94FF0FF3062
:104B0000F3E724B1E948407C08B10020EDE714B197
:104B10000120009001E000200090E44A1268D17B5F
:104B2000E24A526810786B460122FEF7DBFB10B1B7
:104B30004FF0FF30D9E79DF80010DC4841740020A9
:104B4000D3E738B5002419E0D8480068C07AA042FD
:104B500004D0D6480068407DA04200D10CE0D34983
:104B6000496808786B4601222146FEF71FFC10B108
:104B70004FF0FF3038BD00BF601CC4B2CB48406866
:104B80000079A042E0DC0020F4E770B504460D4651
:104B9000C6480068C07AA04204D0C4480068407D7E
:104BA000A04202D14FF0FF3070BDC048406800798C
:104BB000A04202DC4FF0FF30F6E7BC4949680878B4
:104BC0002B4601222146FEF7F1FBEDE738B50446FE
:104BD000B64890F82300A04201D1002038BD14B19E
:104BE0003020009001E000200090B048807C20B18F
:104BF0009DF8000040F002000090AC4890F82200C0
:104C000020B19DF8000040F080000090A74A126893
:104C1000117DA64A526810786B460122FEF762FBAE
:104C200010B14FF0FF30D9E7A04880F823400020B2
:104C3000D4E738B5044604F0700010B101200090AC
:104C400005E014B10020009001E040200090974A58
:104C50001268917C954A526810786B460122FEF7E3
:104C600041FB20B1002191488172481E38BD9DF85A
:104C7000000020F040018D4801730020009004F0F6
:104C8000400020B99DF8000040F00400009004F0BE
:104C9000200020B99DF8000040F00200009004F0D0
:104CA000100020B99DF8000040F00100009004F0D1
:104CB000080020B99DF8000040F0380000907B4AC1
:104CC0001268D17C794A526810786B460122FEF74F
:104CD00009FB20B1002175488172481EC6E724B146
:104CE000082C02D00020FFF771FF70488472002169
:104CF00001753220FDF74FFC0020B7E738B50446B8
:104D00006A48807CA04201D1002038BD002C46D0EA
:104D1000664A12681179654A526810786B4601221A
:104D2000FEF744FB10B14FF0FF30EEE79DF80000B6
:104D300020F0200000905D4A126811795B4A5268A9
:104D400010786B460122FEF7CDFA10B14FF0FF301C
:104D5000DBE70320FDF71FFC02200090534890F88A
:104D6000220020B19DF8000040F0800000904F48E4
:104D700090F8230020B19DF8000040F03000009032
:104D80004A4A1268117D494A526810786B460122DE
:104D9000FEF7A8FA002851D04FF0FF30B5E7434A9C
:104DA00012681179414A526810786B460122FEF769
:104DB000FDFA10B14FF0FF30A7E73C48807A00F0D1
:104DC000010028B19DF8000040F02000009004E0B0
:104DD0009DF8000020F020000090344A12681179FC
:104DE000324A526810786B460122FEF77BFA10B106
:104DF0004FF0FF3089E70320FDF7CDFB2B4890F8FB
:104E0000220010B18020009001E00020009027488F
:104E100090F8230020B19DF8000040F03000009091
:104E2000224A1268117D214A526810786B4601228D
:104E3000FEF758FA10B14FF0FF3066E71B48847454
:104E4000002062E708B51948807A10B94FF0FF30AA
:104E500008BD00200090154A1268D17B134A5268A1
:104E600010786B460122FEF73DFA10B14FF0FF308B
:104E7000EEE70E4A126851790C4A526810786B4678
:104E80000122FEF72FFA10B14FF0FF30E0E7074A9A
:104E900012681179054A526810786B460122FEF7B4
:104EA00021FA28B14FF0FF30D2E700006401002062
:104EB000F74890F82400002850D00C200090F44AC5
:104EC00012681179F24A526810786B460122FEF797
:104ED00009FA10B14FF0FF30BAE7C0200090EC485B
:104EE000807A00F0010020B19DF8000040F0200021
:104EF0000090E74A12681179E54A526810786B46CB
:104F00000122FEF7EFF910B14FF0FF30A0E7E048C3
:104F1000407C10B10220009001E000200090DC4AAB
:104F20001268D17BDA4A526810786B460122FEF78C
:104F3000D9F910B14FF0FF308AE700200090D44A31
:104F400012685179D24A526810786B460122FEF7F6
:104F5000C9F9002852D04FF0FF3079E704200090C3
:104F6000CB4A12681179CA4A526810786B460122FE
:104F7000FEF7B8F910B14FF0FF3069E7C448807C04
:104F800020B9C348807A00F0010010B94020009099
:104F900001E060200090BE4A12681179BC4A526854
:104FA00010786B460122FEF79DF910B14FF0FF30EB
:104FB0004EE7B748407C10B10120009001E000208E
:104FC0000090B34A1268D17BB14A526810786B46A0
:104FD0000122FEF787F910B14FF0FF3038E7AC4AF5
:104FE00012685179AA4A52681078A94B10330122ED
:104FF000FEF778F910B14FF0FF3029E7002027E7DE
:1050000070B50446002624F00104A14890F824005D
:1050100008B1002070BD9E48807A10B94FF0FF3073
:10502000F8E79B48057C807A204099490874084637
:10503000007CA04202D04FF0FF3600E0002614B9F9
:105040009348007D18B10120FFF736FD02E00020F3
:10505000FFF732FD3CB1FFF7F5FE20B18C48057437
:105060004FF0FF30D6E73046D4E738B504468848DD
:10507000807A10B94FF0FF3038BDBC2C02DB012024
:10508000009015E0622C02DB0220009010E02A2C38
:1050900002DB032000900BE0142C02DB04200090C4
:1050A00006E00A2C02DB0520009001E006200090BB
:1050B0007748C07A9DF80010884201D10020DBE7D4
:1050C000734A12689178724A526810786B460122CE
:1050D000FEF708F910B14FF0FF30CDE79DF8001052
:1050E0006B48C1720020C7E738B50446282C02DDA2
:1050F0004FF0FF3038BDDCB90020FFF767FD00201E
:105100008DF8000007208DF80100614A1268917C3B
:105110005F4A526810786B460222FEF7E3F810B13E
:105120004FF0FF30E6E70021594801750020E1E724
:105130000120FFF74BFD20208DF80000012C06D147
:1051400000208DF801000520FFF78FFF17E0052CE8
:1051500006DC01208DF801000520FFF786FF0EE038
:10516000142C06DC02208DF801000A20FFF77DFFD9
:1051700005E003208DF801001420FFF776FF9DF86D
:105180000100072101EB8010C0B28DF80100404AF8
:105190001268917C3E4A526810786B460222FEF7F4
:1051A000A1F810B14FF0FF30A4E708213848817210
:1051B00000210173012101750020FFF721FF00206C
:1051C00098E738B504463248807A10B94FF0FF307E
:1051D00038BD2F4890F8240010B14FF0FF30F7E7AA
:1051E0002B48007D50B134B1282C04DCE0B2FFF72D
:1051F0007BFF0020ECE70020FFF776FF042C01DAAC
:10520000042404E0B4F57A7F01DD4FF47A744FF49E
:105210007A7090FBF4F0401EC0B200901C4A1268F5
:1052200051781B4A526810786B460122FEF75AF8F3
:1052300010B14FF0FF30CBE79DF80000401C4FF459
:105240007A7191FBF0F081B21148C1810146C989A0
:105250004810FFF70AFF0020BAE738B504460C48AB
:10526000807A10B94FF0FF3038BD022C06D0042CE4
:1052700007D0082C08D0102C0FD10BE00020009094
:105280000EE0082000900BE01020009008E00000E5
:10529000640100201820009002E04FF0FF30E3E7A7
:1052A00000BFF948407A9DF80010B0EBE10F01D142
:1052B0000020D9E7F44A1268D179F34A526810788D
:1052C0006B460122FEF70EF810B14FF0FF30CBE72E
:1052D0009DF80000C110EC4841720020C4E738B5C9
:1052E0000446E948807A10B94FF0FF3038BDFA2CF7
:1052F00009D0B4F5FA7F09D0B4F57A7F09D0B4F5B6
:10530000FA6F0CD108E0002000900BE0082000901C
:1053100008E01020009005E01820009002E04FF017
:10532000FF30E3E700BFD848007A9DF80010B0EBEB
:10533000E10F01D10020D9E7D34A12689179D24A0E
:10534000526810786B460122FDF7CCFF10B14FF088
:10535000FF30CBE79DF80000C010CB490872002059
:10536000C4E71CB580208DF80000C74A1268917C04
:10537000C54A526810786B460122FDF7B3FF10B1A1
:105380004FF0FF301CBD6420FDF705F900208DF8BB
:105390000000BD4A1268917CBB4A526810786B4687
:1053A0000122FDF79FFF10B14FF0FF30EAE7B64A48
:1053B0001268917DB44A526810786B460622FDF758
:1053C000F5FF10B14FF0FF30DCE79DF80500C00796
:1053D000400F9DF8031001F0010140EA41009DF8E3
:1053E000011001F0010140EA010494B1012C03D144
:1053F0000121A548C17431E0022C03D10021A2484B
:10540000C1742BE02146A1A003F074F94FF0FF30E6
:10541000B8E79D4A1268D1789B4A526810786B466B
:105420000122FDF7C3FF10B14FF0FF30AAE79DF84E
:10543000000000F00F042CB99E4803F05BF94FF018
:10544000FF309FE7042C06D19BA003F053F9012104
:105450008D48C17402E000218B48C174FF218A4845
:105460008172FF2088490872FF2187484172C1720A
:105470004FF6FF71C181FF21017481740121017315
:1054800080F82210002180F8231041750175163034
:10549000016041608160163880F8241080F8251082
:1054A000C1844FF4FA60FFF71AFF10B14FF0FF30DC
:1054B00068E70220FFF7D1FE10B14FF0FF3061E73F
:1054C0002A20FFF7D2FD10B14FF0FF305AE732200B
:1054D000FFF777FE10B14FF0FF3053E70020FFF7E2
:1054E0008FFD10B14FF0FF304CE70020FFF706FCB6
:1054F00010B14FF0FF3045E70020FFF79AFB002086
:1055000040E770477CB504460D465F48807A00F05E
:10551000700010B94FF0FF307CBD5B4A1268117B00
:10552000594A526810786B460622FDF73FFF10B1CA
:105530004FF0FF30F0E79DF801009DF8001040EAC1
:10554000012000B220809DF803009DF8021040EA7F
:10555000012000B260809DF805009DF8041040EA2B
:10556000012000B2A08015B12846FFF7CAFF002035
:10557000D2E77CB504460D464348807A00F0080027
:1055800010B94FF0FF307CBD3F4A1268517B3E4A54
:10559000526810786B460622FDF708FF10B14FF0F5
:1055A000FF30F0E79DF801009DF8001040EA01206F
:1055B00000B220809DF803009DF8021040EA01200F
:1055C00000B260809DF805009DF8041040EA0120BB
:1055D00000B2A08015B12846FFF793FF0020D2E764
:1055E0002DE9FE4F05460C462748807A18B94FF042
:1055F000FF30BDE8FE8F244A1268917B224A526830
:10560000107802AB0222FDF7D1FE10B14FF0FF304F
:10561000EFE79DF809009DF8081040EA012006B266
:1056200014B12046FFF76DFF17494968C88805F097
:10563000E9F9154901904968B1F9080005F0CAF97E
:105640008346304605F0C6F95946009005F02AFB1E
:105650008246019905F08CF881461F4905F01AF839
:1056600080464FF08F4105F015FA074605F076F9B0
:1056700028600020BDE710B588B004461CB94FF083
:10568000FF3008B010BD29E064010020556E73752D
:1056900070706F7274656420736F66747761726581
:1056A0002070726F64756374207265762025642E95
:1056B0000A000000C8BB000848616C662073656E74
:1056C0007369746976697479207061727420666F89
:1056D000756E642E0D0A000000000C42206830B97F
:1056E000606820B9A06810B9002008B010BDFA4960
:1056F0004968087806AB03221146FDF757FE10B142
:105700004FF0FF30F1E79DF81800082101EB201061
:1057100000F00F00ADF800009DF8190001EB20101B
:1057200000F00F00ADF802009DF81A0001EB201008
:1057300000F00F00ADF8040020684100BDF9000042
:10574000403091FBF0F000B2ADF81000606841000D
:10575000BDF90200403091FBF0F000B2ADF812004C
:10576000A0684100BDF90400403091FBF0F000B2A8
:10577000ADF81400D8494968087806AB06221146EE
:10578000FDF714FE10B14FF0FF30AEE79DF81900A1
:105790009DF8181040EA012000B2ADF808009DF80D
:1057A0001B009DF81A1040EA012000B2ADF80A0073
:1057B0009DF81D009DF81C1040EA012000B2ADF8D4
:1057C0000C00BDF81000BDF80810084400B2ADF898
:1057D0001000BDF81200BDF80A10084400B2ADF880
:1057E0001200BDF81400BDF80C10084400B2ADF86A
:1057F0001400BDF81000000A8DF81800BDF8100064
:10580000C0B28DF81900BDF81200000A8DF81A0018
:10581000BDF81200C0B28DF81B00BDF81400000ADC
:105820008DF81C00BDF81400C0B28DF81D00AA4907
:105830004968087806AB06221146FDF753FD10B102
:105840004FF0FF3051E700204FE70146A248007AB1
:1058500030B1012807D0022809D003280FD10AE06F
:10586000FA2008800EE04FF4FA7008800AE04FF446
:105870007A70088006E04FF4FA60088002E00020A9
:10588000088000BF00BF0020704701469248407A60
:1058900030B1012807D0022808D003280CD108E035
:1058A000022008700BE00420087008E0082008704F
:1058B00005E01020087002E04FF0FF30704700BF95
:1058C0008548C07C18B108784006000E087000209A
:1058D000F4E701468048C07A082817D2DFE800F0D4
:1058E0001704070A0D101318BC20088013E062206B
:1058F000088010E02A2008800DE0142008800AE0CB
:105900000A20088007E00520088004E000BF00BFEF
:105910000020088000BF00BF0020704701466E488D
:1059200090F8240010B14FF0FF3070476A48C089EA
:1059300008800020F9E7014600200880401E7047DB
:1059400001464FF0FF30704701466348007A30B19E
:10595000012807D0022808D003280CD108E05F48AE
:1059600008600BE05E48086008E05E48086005E0FB
:105970005D48086002E04FF0FF30704700BF002034
:10598000FBE701465448407A30B1012808D002288C
:105990000AD0032810D10BE04FF4804008800EE0BD
:1059A00041F69C7008800AE04FF48050088006E0C1
:1059B0004FF40060088002E04FF0FF30704700BFF6
:1059C0004548C07C10B10888401008800020F5E7E9
:1059D00001464148007C08700020704701463E485F
:1059E000807A10B10120087001E0002008700020CA
:1059F000704738B504463848807A10B94FF0FF3008
:105A000038BD354A1268117C334A526810786B46AB
:105A10000222FDF7CBFC10B14FF0FF30F0E79DF80C
:105A200001009DF8001040EA012000B22080002013
:105A3000E6E72DE9FE4F0746884692461D46DDF80B
:105A400030B000260024244890F8240010B1601ED5
:105A5000BDE8FE8F002028701F48807A10B94FF0F3
:105A6000FF30F5E71C48007C10B94FF0FF30EFE73E
:105A70001948007C00F0400008B1B01CC6B21648BE
:105A8000007C00F0200008B1B01CC6B21248007CB7
:105A900000F0100008B1B01CC6B20F48007C00F046
:105AA000080008B1B01DC6B20B4A1268917A0A4AC2
:105AB000526810786B460222FDF778FC10B14FF067
:105AC000FF30C5E79DF801009DF8001040EA01296C
:105AD000B1450BDA0020BBE764010020000003435E
